{
  "contractName": "Abono",
  "abi": [
    {
      "constant": true,
      "inputs": [
        {
          "name": "interfaceId",
          "type": "bytes4"
        }
      ],
      "name": "supportsInterface",
      "outputs": [
        {
          "name": "",
          "type": "bool"
        }
      ],
      "payable": false,
      "stateMutability": "view",
      "type": "function"
    },
    {
      "constant": true,
      "inputs": [],
      "name": "name",
      "outputs": [
        {
          "name": "",
          "type": "string"
        }
      ],
      "payable": false,
      "stateMutability": "view",
      "type": "function"
    },
    {
      "constant": true,
      "inputs": [
        {
          "name": "tokenId",
          "type": "uint256"
        }
      ],
      "name": "getApproved",
      "outputs": [
        {
          "name": "",
          "type": "address"
        }
      ],
      "payable": false,
      "stateMutability": "view",
      "type": "function"
    },
    {
      "constant": false,
      "inputs": [
        {
          "name": "to",
          "type": "address"
        },
        {
          "name": "tokenId",
          "type": "uint256"
        }
      ],
      "name": "approve",
      "outputs": [],
      "payable": false,
      "stateMutability": "nonpayable",
      "type": "function"
    },
    {
      "constant": false,
      "inputs": [
        {
          "name": "tokenId",
          "type": "uint256"
        },
        {
          "name": "_tokenURI",
          "type": "string"
        }
      ],
      "name": "setTokenURI",
      "outputs": [],
      "payable": false,
      "stateMutability": "nonpayable",
      "type": "function"
    },
    {
      "constant": false,
      "inputs": [
        {
          "name": "from",
          "type": "address"
        },
        {
          "name": "to",
          "type": "address"
        },
        {
          "name": "tokenId",
          "type": "uint256"
        }
      ],
      "name": "transferFrom",
      "outputs": [],
      "payable": false,
      "stateMutability": "nonpayable",
      "type": "function"
    },
    {
      "constant": false,
      "inputs": [
        {
          "name": "from",
          "type": "address"
        },
        {
          "name": "to",
          "type": "address"
        },
        {
          "name": "tokenId",
          "type": "uint256"
        }
      ],
      "name": "safeTransferFrom",
      "outputs": [],
      "payable": false,
      "stateMutability": "nonpayable",
      "type": "function"
    },
    {
      "constant": true,
      "inputs": [
        {
          "name": "",
          "type": "uint256"
        }
      ],
      "name": "espectaculosAlquileres",
      "outputs": [
        {
          "name": "",
          "type": "address"
        }
      ],
      "payable": false,
      "stateMutability": "view",
      "type": "function"
    },
    {
      "constant": true,
      "inputs": [
        {
          "name": "tokenId",
          "type": "uint256"
        }
      ],
      "name": "ownerOf",
      "outputs": [
        {
          "name": "",
          "type": "address"
        }
      ],
      "payable": false,
      "stateMutability": "view",
      "type": "function"
    },
    {
      "constant": false,
      "inputs": [
        {
          "name": "to",
          "type": "address"
        }
      ],
      "name": "mint",
      "outputs": [
        {
          "name": "",
          "type": "uint256"
        }
      ],
      "payable": false,
      "stateMutability": "nonpayable",
      "type": "function"
    },
    {
      "constant": true,
      "inputs": [
        {
          "name": "owner",
          "type": "address"
        }
      ],
      "name": "balanceOf",
      "outputs": [
        {
          "name": "",
          "type": "uint256"
        }
      ],
      "payable": false,
      "stateMutability": "view",
      "type": "function"
    },
    {
      "constant": true,
      "inputs": [],
      "name": "disponibilidad",
      "outputs": [
        {
          "name": "fechaAlquilerDesde",
          "type": "uint256"
        },
        {
          "name": "fechaAlquilerHasta",
          "type": "uint256"
        }
      ],
      "payable": false,
      "stateMutability": "view",
      "type": "function"
    },
    {
      "constant": true,
      "inputs": [],
      "name": "temporada",
      "outputs": [
        {
          "name": "",
          "type": "address"
        }
      ],
      "payable": false,
      "stateMutability": "view",
      "type": "function"
    },
    {
      "constant": true,
      "inputs": [],
      "name": "idAbono",
      "outputs": [
        {
          "name": "",
          "type": "uint8"
        }
      ],
      "payable": false,
      "stateMutability": "view",
      "type": "function"
    },
    {
      "constant": true,
      "inputs": [],
      "name": "lastTokenIndex",
      "outputs": [
        {
          "name": "",
          "type": "uint256"
        }
      ],
      "payable": false,
      "stateMutability": "view",
      "type": "function"
    },
    {
      "constant": true,
      "inputs": [],
      "name": "owner",
      "outputs": [
        {
          "name": "",
          "type": "address"
        }
      ],
      "payable": false,
      "stateMutability": "view",
      "type": "function"
    },
    {
      "constant": true,
      "inputs": [],
      "name": "symbol",
      "outputs": [
        {
          "name": "",
          "type": "string"
        }
      ],
      "payable": false,
      "stateMutability": "view",
      "type": "function"
    },
    {
      "constant": false,
      "inputs": [
        {
          "name": "to",
          "type": "address"
        },
        {
          "name": "approved",
          "type": "bool"
        }
      ],
      "name": "setApprovalForAll",
      "outputs": [],
      "payable": false,
      "stateMutability": "nonpayable",
      "type": "function"
    },
    {
      "constant": false,
      "inputs": [
        {
          "name": "from",
          "type": "address"
        },
        {
          "name": "to",
          "type": "address"
        },
        {
          "name": "tokenId",
          "type": "uint256"
        },
        {
          "name": "_data",
          "type": "bytes"
        }
      ],
      "name": "safeTransferFrom",
      "outputs": [],
      "payable": false,
      "stateMutability": "nonpayable",
      "type": "function"
    },
    {
      "constant": true,
      "inputs": [
        {
          "name": "tokenId",
          "type": "uint256"
        }
      ],
      "name": "tokenURI",
      "outputs": [
        {
          "name": "",
          "type": "string"
        }
      ],
      "payable": false,
      "stateMutability": "view",
      "type": "function"
    },
    {
      "constant": true,
      "inputs": [
        {
          "name": "owner",
          "type": "address"
        },
        {
          "name": "operator",
          "type": "address"
        }
      ],
      "name": "isApprovedForAll",
      "outputs": [
        {
          "name": "",
          "type": "bool"
        }
      ],
      "payable": false,
      "stateMutability": "view",
      "type": "function"
    },
    {
      "constant": false,
      "inputs": [
        {
          "name": "newOwner",
          "type": "address"
        }
      ],
      "name": "transferOwnership",
      "outputs": [],
      "payable": false,
      "stateMutability": "nonpayable",
      "type": "function"
    },
    {
      "inputs": [
        {
          "name": "name",
          "type": "string"
        },
        {
          "name": "symbol",
          "type": "string"
        },
        {
          "name": "_idAbono",
          "type": "uint8"
        }
      ],
      "payable": false,
      "stateMutability": "nonpayable",
      "type": "constructor"
    },
    {
      "anonymous": false,
      "inputs": [
        {
          "indexed": true,
          "name": "from",
          "type": "address"
        },
        {
          "indexed": true,
          "name": "to",
          "type": "address"
        },
        {
          "indexed": true,
          "name": "tokenId",
          "type": "uint256"
        }
      ],
      "name": "Transfer",
      "type": "event"
    },
    {
      "anonymous": false,
      "inputs": [
        {
          "indexed": true,
          "name": "owner",
          "type": "address"
        },
        {
          "indexed": true,
          "name": "approved",
          "type": "address"
        },
        {
          "indexed": true,
          "name": "tokenId",
          "type": "uint256"
        }
      ],
      "name": "Approval",
      "type": "event"
    },
    {
      "anonymous": false,
      "inputs": [
        {
          "indexed": true,
          "name": "owner",
          "type": "address"
        },
        {
          "indexed": true,
          "name": "operator",
          "type": "address"
        },
        {
          "indexed": false,
          "name": "approved",
          "type": "bool"
        }
      ],
      "name": "ApprovalForAll",
      "type": "event"
    },
    {
      "constant": false,
      "inputs": [
        {
          "name": "_fechaDesde",
          "type": "uint256"
        },
        {
          "name": "_fechaHasta",
          "type": "uint256"
        }
      ],
      "name": "actualizaFechas",
      "outputs": [],
      "payable": false,
      "stateMutability": "nonpayable",
      "type": "function"
    },
    {
      "constant": true,
      "inputs": [
        {
          "name": "_fecha",
          "type": "uint256"
        },
        {
          "name": "espectaculoId",
          "type": "uint256"
        }
      ],
      "name": "estaDisponibleAlquiler",
      "outputs": [
        {
          "name": "",
          "type": "bool"
        }
      ],
      "payable": false,
      "stateMutability": "view",
      "type": "function"
    },
    {
      "constant": false,
      "inputs": [
        {
          "name": "espectaculoId",
          "type": "uint256"
        },
        {
          "name": "_arrendatario",
          "type": "address"
        }
      ],
      "name": "estableceAlquier",
      "outputs": [],
      "payable": false,
      "stateMutability": "nonpayable",
      "type": "function"
    }
  ],
  "bytecode": "0x60806040523480156200001157600080fd5b506040516200146d3803806200146d833981016040908152815160208301519183015190830192919091019082828181620000757f01ffc9a7000000000000000000000000000000000000000000000000000000006401000000006200014c810204565b620000a97f80ac58cd000000000000000000000000000000000000000000000000000000006401000000006200014c810204565b8151620000be906005906020850190620001b9565b508051620000d4906006906020840190620001b9565b50620001097f5b5e139f000000000000000000000000000000000000000000000000000000006401000000006200014c810204565b50506008805433600160a060020a03199182168117909255600e805490911690911790555050600a805460ff191660ff92909216919091179055506200025e9050565b7fffffffff0000000000000000000000000000000000000000000000000000000080821614156200017c57600080fd5b7fffffffff00000000000000000000000000000000000000000000000000000000166000908152602081905260409020805460ff19166001179055565b828054600181600116156101000203166002900490600052602060002090601f016020900481019282601f10620001fc57805160ff19168380011785556200022c565b828001600101855582156200022c579182015b828111156200022c5782518255916020019190600101906200020f565b506200023a9291506200023e565b5090565b6200025b91905b808211156200023a576000815560010162000245565b90565b6111ff806200026e6000396000f3006080604052600436106101485763ffffffff7c010000000000000000000000000000000000000000000000000000000060003504166301ffc9a7811461014d57806306fdde0314610198578063081812fc14610222578063095ea7b314610256578063162094c41461027c57806323b872dd146102da57806342842e0e1461030457806359d1958a1461032e5780636352211e146103465780636a6278421461035e5780636fa1c26f1461039157806370a08231146103ac5780637a2a06fa146103cd5780637c7f9453146103fb5780638018dbab1461041057806383012e221461043b5780638da5cb5b1461045057806395d89b4114610465578063a22cb4651461047a578063b88d4fde146104a0578063bafb0b821461050f578063c87b56dd14610533578063e985e9c51461054b578063f1e32ad414610572578063f2fde38b1461058d575b600080fd5b34801561015957600080fd5b506101847bffffffffffffffffffffffffffffffffffffffffffffffffffffffff19600435166105ae565b604080519115158252519081900360200190f35b3480156101a457600080fd5b506101ad6105e6565b6040805160208082528351818301528351919283929083019185019080838360005b838110156101e75781810151838201526020016101cf565b50505050905090810190601f1680156102145780820380516001836020036101000a031916815260200191505b509250505060405180910390f35b34801561022e57600080fd5b5061023a60043561067d565b60408051600160a060020a039092168252519081900360200190f35b34801561026257600080fd5b5061027a600160a060020a03600435166024356106af565b005b34801561028857600080fd5b5060408051602060046024803582810135601f810185900485028601850190965285855261027a9583359536956044949193909101919081908401838280828437509497506107659650505050505050565b3480156102e657600080fd5b5061027a600160a060020a0360043581169060243516604435610786565b34801561031057600080fd5b5061027a600160a060020a0360043581169060243516604435610814565b34801561033a57600080fd5b5061023a600435610835565b34801561035257600080fd5b5061023a600435610850565b34801561036a57600080fd5b5061037f600160a060020a036004351661087a565b60408051918252519081900360200190f35b34801561039d57600080fd5b506101846004356024356108af565b3480156103b857600080fd5b5061037f600160a060020a0360043516610953565b3480156103d957600080fd5b506103e2610986565b6040805192835260208301919091528051918290030190f35b34801561040757600080fd5b5061023a61098f565b34801561041c57600080fd5b5061042561099e565b6040805160ff9092168252519081900360200190f35b34801561044757600080fd5b5061037f6109a7565b34801561045c57600080fd5b5061023a6109ad565b34801561047157600080fd5b506101ad6109bc565b34801561048657600080fd5b5061027a600160a060020a03600435166024351515610a1d565b3480156104ac57600080fd5b50604080516020601f60643560048181013592830184900484028501840190955281845261027a94600160a060020a038135811695602480359092169560443595369560849401918190840183828082843750949750610aa19650505050505050565b34801561051b57600080fd5b5061027a600435600160a060020a0360243516610ac9565b34801561053f57600080fd5b506101ad600435610b16565b34801561055757600080fd5b50610184600160a060020a0360043581169060243516610bcb565b34801561057e57600080fd5b5061027a600435602435610bf9565b34801561059957600080fd5b5061027a600160a060020a0360043516610c2c565b7bffffffffffffffffffffffffffffffffffffffffffffffffffffffff19811660009081526020819052604090205460ff165b919050565b60058054604080516020601f60026000196101006001881615020190951694909404938401819004810282018101909252828152606093909290918301828280156106725780601f1061064757610100808354040283529160200191610672565b820191906000526020600020905b81548152906001019060200180831161065557829003601f168201915b505050505090505b90565b600061068882610ce2565b151561069357600080fd5b50600090815260026020526040902054600160a060020a031690565b60006106ba82610850565b9050600160a060020a0383811690821614156106d557600080fd5b33600160a060020a03821614806106f157506106f18133610bcb565b15156106fc57600080fd5b600082815260026020526040808220805473ffffffffffffffffffffffffffffffffffffffff1916600160a060020a0387811691821790925591518593918516917f8c5be1e5ebec7d5bd14f71427d1e84f3dd0314c0f7b2291e5b200ac8c7c3b92591a4505050565b600854600160a060020a0316331415610782576107828282610cff565b5050565b6107903382610d32565b151561079b57600080fd5b600160a060020a03821615156107b057600080fd5b6107ba8382610d91565b6107c48382610e00565b6107ce8282610e96565b8082600160a060020a031684600160a060020a03167fddf252ad1be2c89b69c2b068fc378daa952ba7f163c4a11628f55a4df523b3ef60405160405180910390a4505050565b6108308383836020604051908101604052806000815250610aa1565b505050565b600d60205260009081526040902054600160a060020a031681565b600081815260016020526040812054600160a060020a031680151561087457600080fd5b92915050565b600854600090600160a060020a03163314156105e15761089f82600954600101610f26565b5050600980546001019081905590565b6000818152600d6020526040812054600160a060020a0316156108d457506000610874565b600b541580156108e55750600c5415155b156108f65750600c54821115610874565b600b54158015906109075750600c54155b156109185750600b54821015610874565b600b541580159061092a5750600c5415155b1561094a57600c5483118015906109435750600b548310155b9050610874565b50600092915050565b6000600160a060020a038216151561096a57600080fd5b50600160a060020a031660009081526003602052604090205490565b600b54600c5482565b600e54600160a060020a031681565b600a5460ff1681565b60095481565b600854600160a060020a031681565b60068054604080516020601f60026000196101006001881615020190951694909404938401819004810282018101909252828152606093909290918301828280156106725780601f1061064757610100808354040283529160200191610672565b600160a060020a038216331415610a3357600080fd5b336000818152600460209081526040808320600160a060020a03871680855290835292819020805460ff1916861515908117909155815190815290519293927f17307eab39ab6107e8899845ad3d59bd9653f200f220920489ca2b5937696c31929181900390910190a35050565b610aac848484610786565b610ab884848484610f81565b1515610ac357600080fd5b50505050565b600e54600160a060020a0316331415610782576000828152600d602052604090208054600160a060020a03831673ffffffffffffffffffffffffffffffffffffffff199091161790555050565b6060610b2182610ce2565b1515610b2c57600080fd5b60008281526007602090815260409182902080548351601f600260001961010060018616150201909316929092049182018490048402810184019094528084529091830182828015610bbf5780601f10610b9457610100808354040283529160200191610bbf565b820191906000526020600020905b815481529060010190602001808311610ba257829003601f168201915b50505050509050919050565b600160a060020a03918216600090815260046020908152604080832093909416825291909152205460ff1690565b600e54600160a060020a0316331480610c1c5750600854600160a060020a031633145b1561078257600b91909155600c55565b600854600160a060020a0316331415610cdf57600160a060020a0381161515610cb657604080517f08c379a000000000000000000000000000000000000000000000000000000000815260206004820152600f60248201527f496e76616c696420616464726573730000000000000000000000000000000000604482015290519081900360640190fd5b6008805473ffffffffffffffffffffffffffffffffffffffff1916600160a060020a0383161790555b50565b600090815260016020526040902054600160a060020a0316151590565b610d0882610ce2565b1515610d1357600080fd5b600082815260076020908152604090912082516108309284019061113b565b600080610d3e83610850565b905080600160a060020a031684600160a060020a03161480610d79575083600160a060020a0316610d6e8461067d565b600160a060020a0316145b80610d895750610d898185610bcb565b949350505050565b81600160a060020a0316610da482610850565b600160a060020a031614610db757600080fd5b600081815260026020526040902054600160a060020a031615610782576000908152600260205260409020805473ffffffffffffffffffffffffffffffffffffffff1916905550565b81600160a060020a0316610e1382610850565b600160a060020a031614610e2657600080fd5b600160a060020a038216600090815260036020526040902054610e5090600163ffffffff61110316565b600160a060020a03909216600090815260036020908152604080832094909455918152600190915220805473ffffffffffffffffffffffffffffffffffffffff19169055565b600081815260016020526040902054600160a060020a031615610eb857600080fd5b6000818152600160208181526040808420805473ffffffffffffffffffffffffffffffffffffffff1916600160a060020a0388169081179091558452600390915290912054610f069161111a565b600160a060020a0390921660009081526003602052604090209190915550565b600160a060020a0382161515610f3b57600080fd5b610f458282610e96565b6040518190600160a060020a038416906000907fddf252ad1be2c89b69c2b068fc378daa952ba7f163c4a11628f55a4df523b3ef908290a45050565b600080610f9685600160a060020a0316611133565b1515610fa557600191506110fa565b6040517f150b7a020000000000000000000000000000000000000000000000000000000081523360048201818152600160a060020a03898116602485015260448401889052608060648501908152875160848601528751918a169463150b7a0294938c938b938b93909160a490910190602085019080838360005b83811015611038578181015183820152602001611020565b50505050905090810190601f1680156110655780820380516001836020036101000a031916815260200191505b5095505050505050602060405180830381600087803b15801561108757600080fd5b505af115801561109b573d6000803e3d6000fd5b505050506040513d60208110156110b157600080fd5b50517bffffffffffffffffffffffffffffffffffffffffffffffffffffffff1981167f150b7a020000000000000000000000000000000000000000000000000000000014925090505b50949350505050565b6000808383111561111357600080fd5b5050900390565b60008282018381101561112c57600080fd5b9392505050565b6000903b1190565b828054600181600116156101000203166002900490600052602060002090601f016020900481019282601f1061117c57805160ff19168380011785556111a9565b828001600101855582156111a9579182015b828111156111a957825182559160200191906001019061118e565b506111b59291506111b9565b5090565b61067a91905b808211156111b557600081556001016111bf5600a165627a7a723058206754462ef9d0293340d5cd32ea71ccf1e8e0610457e3d7629aeb44337d6b8cfa0029",
  "source": "pragma solidity ^0.4.24;\n\nimport \"./Metadata.sol\";\n\ncontract Abono is Metadata {\n\n    uint8 public idAbono;\n    Disponibilidad public disponibilidad;\n    mapping(uint256 => address) public espectaculosAlquileres;\n    address public temporada;\n\n    struct Disponibilidad {\n        uint fechaAlquilerDesde;\n        uint fechaAlquilerHasta;\n    }\n\n    modifier soloAbonadoYTemporada() {\n        if (msg.sender == temporada || msg.sender == owner)\n            _;\n    }\n    \n    modifier soloTemporada() {\n        if (msg.sender == temporada)\n            _;\n    }\n    \n    constructor(string memory name, string memory symbol, uint8 _idAbono) public Metadata(name, symbol) {\n     temporada = msg.sender;\n     idAbono = _idAbono;\n    }\n    \n    function actualizaFechas(uint _fechaDesde, uint _fechaHasta) public soloAbonadoYTemporada {\n        disponibilidad.fechaAlquilerDesde = _fechaDesde;\n        disponibilidad.fechaAlquilerHasta = _fechaHasta;\n    }\n\n    function estaDisponibleAlquiler(uint _fecha, uint256 espectaculoId) public view returns(bool) {\n        if(espectaculosAlquileres[espectaculoId] != address(0)){\n         return false;\n        }else if(disponibilidad.fechaAlquilerDesde == 0 && disponibilidad.fechaAlquilerHasta != 0){\n         return _fecha <= disponibilidad.fechaAlquilerHasta;\n        }else if(disponibilidad.fechaAlquilerDesde != 0 && disponibilidad.fechaAlquilerHasta == 0){\n         return _fecha >= disponibilidad.fechaAlquilerDesde;\n        }else if(disponibilidad.fechaAlquilerDesde != 0 && disponibilidad.fechaAlquilerHasta != 0){\n         return _fecha <= disponibilidad.fechaAlquilerHasta && _fecha >= disponibilidad.fechaAlquilerDesde;\n        }\n       return false;\n    }\n    \n    function estableceAlquier(uint256 espectaculoId, address _arrendatario) public soloTemporada {\n     espectaculosAlquileres[espectaculoId] = _arrendatario;\n    }\n\n}",
  "sourcePath": "/Users/dvm/Documents/Development/WorkspaceEB/TFE/TruffleProject/contracts/Abono.sol",
  "compiler": {
    "name": "solc",
    "version": "0.4.24+commit.e67f0147.Emscripten.clang"
  },
  "schemaVersion": "3.3.4",
  "updatedAt": "2021-03-18T18:49:21.755Z",
  "devdoc": {
    "methods": {
      "approve(address,uint256)": {
        "details": "Approves another address to transfer the given token ID The zero address indicates there is no approved address. There can only be one approved address per token at a given time. Can only be called by the token owner or an approved operator.",
        "params": {
          "to": "address to be approved for the given token ID",
          "tokenId": "uint256 ID of the token to be approved"
        }
      },
      "balanceOf(address)": {
        "details": "Gets the balance of the specified address",
        "params": {
          "owner": "address to query the balance of"
        },
        "return": "uint256 representing the amount owned by the passed address"
      },
      "getApproved(uint256)": {
        "details": "Gets the approved address for a token ID, or zero if no address set Reverts if the token ID does not exist.",
        "params": {
          "tokenId": "uint256 ID of the token to query the approval of"
        },
        "return": "address currently approved for the given token ID"
      },
      "isApprovedForAll(address,address)": {
        "details": "Tells whether an operator is approved by a given owner",
        "params": {
          "operator": "operator address which you want to query the approval of",
          "owner": "owner address which you want to query the approval of"
        },
        "return": "bool whether the given operator is approved by the given owner"
      },
      "name()": {
        "details": "Gets the token name",
        "return": "string representing the token name"
      },
      "ownerOf(uint256)": {
        "details": "Gets the owner of the specified token ID",
        "params": {
          "tokenId": "uint256 ID of the token to query the owner of"
        },
        "return": "owner address currently marked as the owner of the given token ID"
      },
      "safeTransferFrom(address,address,uint256)": {
        "details": "Safely transfers the ownership of a given token ID to another address If the target address is a contract, it must implement `onERC721Received`, which is called upon a safe transfer, and return the magic value `bytes4(keccak256(\"onERC721Received(address,address,uint256,bytes)\"))`; otherwise, the transfer is reverted.   * Requires the msg sender to be the owner, approved, or operator",
        "params": {
          "from": "current owner of the token",
          "to": "address to receive the ownership of the given token ID",
          "tokenId": "uint256 ID of the token to be transferred"
        }
      },
      "safeTransferFrom(address,address,uint256,bytes)": {
        "details": "Safely transfers the ownership of a given token ID to another address If the target address is a contract, it must implement `onERC721Received`, which is called upon a safe transfer, and return the magic value `bytes4(keccak256(\"onERC721Received(address,address,uint256,bytes)\"))`; otherwise, the transfer is reverted. Requires the msg sender to be the owner, approved, or operator",
        "params": {
          "_data": "bytes data to send along with a safe transfer check",
          "from": "current owner of the token",
          "to": "address to receive the ownership of the given token ID",
          "tokenId": "uint256 ID of the token to be transferred"
        }
      },
      "setApprovalForAll(address,bool)": {
        "details": "Sets or unsets the approval of a given operator An operator is allowed to transfer all tokens of the sender on their behalf",
        "params": {
          "approved": "representing the status of the approval to be set",
          "to": "operator address to set the approval"
        }
      },
      "supportsInterface(bytes4)": {
        "details": "implement supportsInterface(bytes4) using a lookup table"
      },
      "symbol()": {
        "details": "Gets the token symbol",
        "return": "string representing the token symbol"
      },
      "tokenURI(uint256)": {
        "details": "Returns an URI for a given token ID Throws if the token ID does not exist. May return an empty string.",
        "params": {
          "tokenId": "uint256 ID of the token to query"
        }
      },
      "transferFrom(address,address,uint256)": {
        "details": "Transfers the ownership of a given token ID to another address Usage of this method is discouraged, use `safeTransferFrom` whenever possible Requires the msg sender to be the owner, approved, or operator",
        "params": {
          "from": "current owner of the token",
          "to": "address to receive the ownership of the given token ID",
          "tokenId": "uint256 ID of the token to be transferred"
        }
      }
    }
  },
  "userdoc": {
    "methods": {}
  }
}