{
  "contractName": "DatosTemporada",
  "abi": [
    {
      "constant": true,
      "inputs": [],
      "name": "porcentajeAlquiler",
      "outputs": [
        {
          "name": "",
          "type": "uint8"
        }
      ],
      "payable": false,
      "stateMutability": "view",
      "type": "function"
    },
    {
      "constant": true,
      "inputs": [],
      "name": "dineroAbono",
      "outputs": [
        {
          "name": "",
          "type": "address"
        }
      ],
      "payable": false,
      "stateMutability": "view",
      "type": "function"
    },
    {
      "constant": true,
      "inputs": [],
      "name": "tiposLocalidad",
      "outputs": [
        {
          "name": "",
          "type": "uint8"
        }
      ],
      "payable": false,
      "stateMutability": "view",
      "type": "function"
    },
    {
      "constant": true,
      "inputs": [],
      "name": "actualIdLocalidad",
      "outputs": [
        {
          "name": "",
          "type": "uint8"
        }
      ],
      "payable": false,
      "stateMutability": "view",
      "type": "function"
    },
    {
      "constant": true,
      "inputs": [],
      "name": "faseTemporada",
      "outputs": [
        {
          "name": "",
          "type": "uint8"
        }
      ],
      "payable": false,
      "stateMutability": "view",
      "type": "function"
    },
    {
      "constant": true,
      "inputs": [],
      "name": "factorIncrementoTipo",
      "outputs": [
        {
          "name": "",
          "type": "uint8"
        }
      ],
      "payable": false,
      "stateMutability": "view",
      "type": "function"
    },
    {
      "constant": true,
      "inputs": [],
      "name": "precioBase",
      "outputs": [
        {
          "name": "",
          "type": "uint8"
        }
      ],
      "payable": false,
      "stateMutability": "view",
      "type": "function"
    },
    {
      "constant": true,
      "inputs": [],
      "name": "owner",
      "outputs": [
        {
          "name": "",
          "type": "address"
        }
      ],
      "payable": false,
      "stateMutability": "view",
      "type": "function"
    },
    {
      "constant": true,
      "inputs": [],
      "name": "actualIdAbono",
      "outputs": [
        {
          "name": "",
          "type": "uint8"
        }
      ],
      "payable": false,
      "stateMutability": "view",
      "type": "function"
    },
    {
      "constant": true,
      "inputs": [],
      "name": "nombre",
      "outputs": [
        {
          "name": "",
          "type": "string"
        }
      ],
      "payable": false,
      "stateMutability": "view",
      "type": "function"
    },
    {
      "constant": false,
      "inputs": [
        {
          "name": "newOwner",
          "type": "address"
        }
      ],
      "name": "transferOwnership",
      "outputs": [],
      "payable": false,
      "stateMutability": "nonpayable",
      "type": "function"
    },
    {
      "constant": true,
      "inputs": [],
      "name": "actualIdEspectaculo",
      "outputs": [
        {
          "name": "",
          "type": "uint8"
        }
      ],
      "payable": false,
      "stateMutability": "view",
      "type": "function"
    },
    {
      "constant": false,
      "inputs": [],
      "name": "iniciaPeriodoAbono",
      "outputs": [],
      "payable": false,
      "stateMutability": "nonpayable",
      "type": "function"
    },
    {
      "constant": false,
      "inputs": [],
      "name": "iniciaTemporada",
      "outputs": [],
      "payable": false,
      "stateMutability": "nonpayable",
      "type": "function"
    },
    {
      "constant": false,
      "inputs": [],
      "name": "finalizaTemporada",
      "outputs": [],
      "payable": false,
      "stateMutability": "nonpayable",
      "type": "function"
    }
  ],
  "bytecode": "0x608060405260008054600160a060020a031916331790556107a6806100256000396000f3006080604052600436106100da5763ffffffff7c010000000000000000000000000000000000000000000000000000000060003504166301f9d1c581146100df578063041b59d61461010a57806327068598146101485780632c64ebfb1461015d57806345557f3c146101725780634b54cd85146101ab5780634c639373146101c0578063569fd801146101d75780638ba33bf7146101ec5780638da5cb5b1461020157806394874e3014610216578063bc7b35b21461022b578063d0dc0f86146102b5578063f2fde38b146102ca578063fdeb9865146102f8575b600080fd5b3480156100eb57600080fd5b506100f461030d565b6040805160ff9092168252519081900360200190f35b34801561011657600080fd5b5061011f610321565b6040805173ffffffffffffffffffffffffffffffffffffffff9092168252519081900360200190f35b34801561015457600080fd5b506100f4610349565b34801561016957600080fd5b506100f461035b565b34801561017e57600080fd5b50610187610369565b6040518082600381111561019757fe5b60ff16815260200191505060405180910390f35b3480156101b757600080fd5b506100f4610372565b3480156101cc57600080fd5b506101d5610385565b005b3480156101e357600080fd5b506100f461043a565b3480156101f857600080fd5b506101d561044b565b34801561020d57600080fd5b5061011f610523565b34801561022257600080fd5b506100f461053f565b34801561023757600080fd5b5061024061054f565b6040805160208082528351818301528351919283929083019185019080838360005b8381101561027a578181015183820152602001610262565b50505050905090810190601f1680156102a75780820380516001836020036101000a031916815260200191505b509250505060405180910390f35b3480156102c157600080fd5b506101d56105dc565b3480156102d657600080fd5b506101d573ffffffffffffffffffffffffffffffffffffffff6004351661068e565b34801561030457600080fd5b506100f461076b565b600254670100000000000000900460ff1681565b60025468010000000000000000900473ffffffffffffffffffffffffffffffffffffffff1681565b60025465010000000000900460ff1681565b600254610100900460ff1681565b60025460ff1681565b6002546601000000000000900460ff1681565b60005473ffffffffffffffffffffffffffffffffffffffff1633141561043857600160025460ff1660038111156103b857fe5b1461042457604080517f08c379a000000000000000000000000000000000000000000000000000000000815260206004820152601c60248201527f4465626520657374c3a17220656e20666173652064652061626f6e6f00000000604482015290519081900360640190fd5b60028054819060ff19166001825b02179055505b565b600254640100000000900460ff1681565b60005473ffffffffffffffffffffffffffffffffffffffff1633141561043857600060025460ff16600381111561047e57fe5b1461051057604080517f08c379a000000000000000000000000000000000000000000000000000000000815260206004820152603f60248201527f4465626520657374c3a17220656e206661736520646520637265616369c3b36e60448201527f207061726120706173617220616c20706572696f646f2064652061626f6e6f00606482015290519081900360840190fd5b600280546001919060ff19168280610432565b60005473ffffffffffffffffffffffffffffffffffffffff1681565b6002546301000000900460ff1681565b60018054604080516020600284861615610100026000190190941693909304601f810184900484028201840190925281815292918301828280156105d45780601f106105a9576101008083540402835291602001916105d4565b820191906000526020600020905b8154815290600101906020018083116105b757829003601f168201915b505050505081565b60005473ffffffffffffffffffffffffffffffffffffffff16331415610438576002805460ff16600381111561060e57fe5b1461067a57604080517f08c379a000000000000000000000000000000000000000000000000000000000815260206004820152601d60248201527f4465626520657374c3a17220656e206661736520646520696e6963696f000000604482015290519081900360640190fd5b600280546003919060ff1916600183610432565b60005473ffffffffffffffffffffffffffffffffffffffff163314156107685773ffffffffffffffffffffffffffffffffffffffff8116151561073257604080517f08c379a000000000000000000000000000000000000000000000000000000000815260206004820152600f60248201527f496e76616c696420616464726573730000000000000000000000000000000000604482015290519081900360640190fd5b6000805473ffffffffffffffffffffffffffffffffffffffff191673ffffffffffffffffffffffffffffffffffffffff83161790555b50565b60025462010000900460ff16815600a165627a7a7230582061461143e090468c8b5d4df8b0deda5c3e438d9ca9488419a39ecf95775724140029",
  "source": "pragma solidity ^0.4.24;\n\nimport \"./Ownable.sol\";\nimport \"./DAbono.sol\";\n\ncontract DatosTemporada is Ownable {\n\n    enum Etapa {Creacion, Abono, Iniciada, Finalizada}\n    \n    string public nombre;\n    Etapa public faseTemporada;\n        \n    uint8 public actualIdLocalidad; \n    uint8 public actualIdEspectaculo;  \n    uint8 public actualIdAbono; \n    uint8 public precioBase; \n    uint8 public tiposLocalidad; // diferentes tipos de localidad que afectan al incremento del predio de cada una\n    uint8 public factorIncrementoTipo; // cuanto se incremente el precio de una localidad entre un tipo y el siguiente tipo\n    uint8 public porcentajeAlquiler; // pordentaje que irá al abonado en caso de alquilar un abono que haya comprado\n    DAbono public dineroAbono; // dinero que se usará en la compra y alquiler de abonos\n\n    \n    function iniciaPeriodoAbono() public onlyOwner {\n     require(faseTemporada == Etapa.Creacion,\"Debe estár en fase de creación para pasar al periodo de abono\");\n     faseTemporada = Etapa.Abono;\n    }\n    \n    function iniciaTemporada() public onlyOwner {\n     require(faseTemporada == Etapa.Abono,\"Debe estár en fase de abono\");\n     faseTemporada = Etapa.Iniciada;\n    }\n    \n    function finalizaTemporada() public onlyOwner {\n     require(faseTemporada == Etapa.Iniciada,\"Debe estár en fase de inicio\");\n     faseTemporada = Etapa.Finalizada;\n    }\n}",
  "sourcePath": "/Users/dvm/Documents/Development/WorkspaceEB/TFE/TruffleProject/contracts/DatosTemporada.sol",
  "compiler": {
    "name": "solc",
    "version": "0.4.24+commit.e67f0147.Emscripten.clang"
  },
  "schemaVersion": "3.3.4",
  "updatedAt": "2021-03-18T18:49:21.766Z",
  "devdoc": {
    "methods": {}
  },
  "userdoc": {
    "methods": {}
  }
}