{
  "contractName": "Localidad",
  "abi": [
    {
      "constant": true,
      "inputs": [
        {
          "name": "interfaceId",
          "type": "bytes4"
        }
      ],
      "name": "supportsInterface",
      "outputs": [
        {
          "name": "",
          "type": "bool"
        }
      ],
      "payable": false,
      "stateMutability": "view",
      "type": "function"
    },
    {
      "constant": true,
      "inputs": [],
      "name": "name",
      "outputs": [
        {
          "name": "",
          "type": "string"
        }
      ],
      "payable": false,
      "stateMutability": "view",
      "type": "function"
    },
    {
      "constant": true,
      "inputs": [
        {
          "name": "tokenId",
          "type": "uint256"
        }
      ],
      "name": "getApproved",
      "outputs": [
        {
          "name": "",
          "type": "address"
        }
      ],
      "payable": false,
      "stateMutability": "view",
      "type": "function"
    },
    {
      "constant": false,
      "inputs": [
        {
          "name": "to",
          "type": "address"
        },
        {
          "name": "tokenId",
          "type": "uint256"
        }
      ],
      "name": "approve",
      "outputs": [],
      "payable": false,
      "stateMutability": "nonpayable",
      "type": "function"
    },
    {
      "constant": false,
      "inputs": [
        {
          "name": "tokenId",
          "type": "uint256"
        },
        {
          "name": "_tokenURI",
          "type": "string"
        }
      ],
      "name": "setTokenURI",
      "outputs": [],
      "payable": false,
      "stateMutability": "nonpayable",
      "type": "function"
    },
    {
      "constant": false,
      "inputs": [
        {
          "name": "from",
          "type": "address"
        },
        {
          "name": "to",
          "type": "address"
        },
        {
          "name": "tokenId",
          "type": "uint256"
        }
      ],
      "name": "transferFrom",
      "outputs": [],
      "payable": false,
      "stateMutability": "nonpayable",
      "type": "function"
    },
    {
      "constant": false,
      "inputs": [
        {
          "name": "from",
          "type": "address"
        },
        {
          "name": "to",
          "type": "address"
        },
        {
          "name": "tokenId",
          "type": "uint256"
        }
      ],
      "name": "safeTransferFrom",
      "outputs": [],
      "payable": false,
      "stateMutability": "nonpayable",
      "type": "function"
    },
    {
      "constant": true,
      "inputs": [
        {
          "name": "tokenId",
          "type": "uint256"
        }
      ],
      "name": "ownerOf",
      "outputs": [
        {
          "name": "",
          "type": "address"
        }
      ],
      "payable": false,
      "stateMutability": "view",
      "type": "function"
    },
    {
      "constant": false,
      "inputs": [
        {
          "name": "to",
          "type": "address"
        }
      ],
      "name": "mint",
      "outputs": [
        {
          "name": "",
          "type": "uint256"
        }
      ],
      "payable": false,
      "stateMutability": "nonpayable",
      "type": "function"
    },
    {
      "constant": true,
      "inputs": [
        {
          "name": "owner",
          "type": "address"
        }
      ],
      "name": "balanceOf",
      "outputs": [
        {
          "name": "",
          "type": "uint256"
        }
      ],
      "payable": false,
      "stateMutability": "view",
      "type": "function"
    },
    {
      "constant": true,
      "inputs": [],
      "name": "lastTokenIndex",
      "outputs": [
        {
          "name": "",
          "type": "uint256"
        }
      ],
      "payable": false,
      "stateMutability": "view",
      "type": "function"
    },
    {
      "constant": true,
      "inputs": [],
      "name": "owner",
      "outputs": [
        {
          "name": "",
          "type": "address"
        }
      ],
      "payable": false,
      "stateMutability": "view",
      "type": "function"
    },
    {
      "constant": true,
      "inputs": [],
      "name": "symbol",
      "outputs": [
        {
          "name": "",
          "type": "string"
        }
      ],
      "payable": false,
      "stateMutability": "view",
      "type": "function"
    },
    {
      "constant": false,
      "inputs": [
        {
          "name": "to",
          "type": "address"
        },
        {
          "name": "approved",
          "type": "bool"
        }
      ],
      "name": "setApprovalForAll",
      "outputs": [],
      "payable": false,
      "stateMutability": "nonpayable",
      "type": "function"
    },
    {
      "constant": true,
      "inputs": [],
      "name": "tipoLocalidad",
      "outputs": [
        {
          "name": "",
          "type": "uint8"
        }
      ],
      "payable": false,
      "stateMutability": "view",
      "type": "function"
    },
    {
      "constant": false,
      "inputs": [
        {
          "name": "from",
          "type": "address"
        },
        {
          "name": "to",
          "type": "address"
        },
        {
          "name": "tokenId",
          "type": "uint256"
        },
        {
          "name": "_data",
          "type": "bytes"
        }
      ],
      "name": "safeTransferFrom",
      "outputs": [],
      "payable": false,
      "stateMutability": "nonpayable",
      "type": "function"
    },
    {
      "constant": true,
      "inputs": [],
      "name": "idLocalidad",
      "outputs": [
        {
          "name": "",
          "type": "uint8"
        }
      ],
      "payable": false,
      "stateMutability": "view",
      "type": "function"
    },
    {
      "constant": true,
      "inputs": [
        {
          "name": "tokenId",
          "type": "uint256"
        }
      ],
      "name": "tokenURI",
      "outputs": [
        {
          "name": "",
          "type": "string"
        }
      ],
      "payable": false,
      "stateMutability": "view",
      "type": "function"
    },
    {
      "constant": true,
      "inputs": [
        {
          "name": "owner",
          "type": "address"
        },
        {
          "name": "operator",
          "type": "address"
        }
      ],
      "name": "isApprovedForAll",
      "outputs": [
        {
          "name": "",
          "type": "bool"
        }
      ],
      "payable": false,
      "stateMutability": "view",
      "type": "function"
    },
    {
      "constant": false,
      "inputs": [
        {
          "name": "newOwner",
          "type": "address"
        }
      ],
      "name": "transferOwnership",
      "outputs": [],
      "payable": false,
      "stateMutability": "nonpayable",
      "type": "function"
    },
    {
      "inputs": [
        {
          "name": "name",
          "type": "string"
        },
        {
          "name": "symbol",
          "type": "string"
        },
        {
          "name": "_tipoLocalidad",
          "type": "uint8"
        },
        {
          "name": "_idLocalidad",
          "type": "uint8"
        }
      ],
      "payable": false,
      "stateMutability": "nonpayable",
      "type": "constructor"
    },
    {
      "anonymous": false,
      "inputs": [
        {
          "indexed": true,
          "name": "from",
          "type": "address"
        },
        {
          "indexed": true,
          "name": "to",
          "type": "address"
        },
        {
          "indexed": true,
          "name": "tokenId",
          "type": "uint256"
        }
      ],
      "name": "Transfer",
      "type": "event"
    },
    {
      "anonymous": false,
      "inputs": [
        {
          "indexed": true,
          "name": "owner",
          "type": "address"
        },
        {
          "indexed": true,
          "name": "approved",
          "type": "address"
        },
        {
          "indexed": true,
          "name": "tokenId",
          "type": "uint256"
        }
      ],
      "name": "Approval",
      "type": "event"
    },
    {
      "anonymous": false,
      "inputs": [
        {
          "indexed": true,
          "name": "owner",
          "type": "address"
        },
        {
          "indexed": true,
          "name": "operator",
          "type": "address"
        },
        {
          "indexed": false,
          "name": "approved",
          "type": "bool"
        }
      ],
      "name": "ApprovalForAll",
      "type": "event"
    }
  ],
  "bytecode": "0x60806040523480156200001157600080fd5b506040516200124f3803806200124f8339810160409081528151602083015191830151606084015191840193929092019190838381816200007b7f01ffc9a7000000000000000000000000000000000000000000000000000000006401000000006200014e810204565b620000af7f80ac58cd000000000000000000000000000000000000000000000000000000006401000000006200014e810204565b8151620000c4906005906020850190620001bb565b508051620000da906006906020840190620001bb565b506200010f7f5b5e139f000000000000000000000000000000000000000000000000000000006401000000006200014e810204565b50506008805433600160a060020a03199091161790555050600a805461ff00191661010060ff948516021760ff19169190921617905550620002609050565b7fffffffff0000000000000000000000000000000000000000000000000000000080821614156200017e57600080fd5b7fffffffff00000000000000000000000000000000000000000000000000000000166000908152602081905260409020805460ff19166001179055565b828054600181600116156101000203166002900490600052602060002090601f016020900481019282601f10620001fe57805160ff19168380011785556200022e565b828001600101855582156200022e579182015b828111156200022e57825182559160200191906001019062000211565b506200023c92915062000240565b5090565b6200025d91905b808211156200023c576000815560010162000247565b90565b610fdf80620002706000396000f3006080604052600436106101115763ffffffff7c010000000000000000000000000000000000000000000000000000000060003504166301ffc9a7811461011657806306fdde0314610161578063081812fc146101eb578063095ea7b31461021f578063162094c41461024557806323b872dd146102a357806342842e0e146102cd5780636352211e146102f75780636a6278421461030f57806370a082311461034257806383012e22146103635780638da5cb5b1461037857806395d89b411461038d578063a22cb465146103a2578063b139acd9146103c8578063b88d4fde146103f3578063bccee44014610462578063c87b56dd14610477578063e985e9c51461048f578063f2fde38b146104b6575b600080fd5b34801561012257600080fd5b5061014d7bffffffffffffffffffffffffffffffffffffffffffffffffffffffff19600435166104d7565b604080519115158252519081900360200190f35b34801561016d57600080fd5b5061017661050f565b6040805160208082528351818301528351919283929083019185019080838360005b838110156101b0578181015183820152602001610198565b50505050905090810190601f1680156101dd5780820380516001836020036101000a031916815260200191505b509250505060405180910390f35b3480156101f757600080fd5b506102036004356105a6565b60408051600160a060020a039092168252519081900360200190f35b34801561022b57600080fd5b50610243600160a060020a03600435166024356105d8565b005b34801561025157600080fd5b5060408051602060046024803582810135601f810185900485028601850190965285855261024395833595369560449491939091019190819084018382808284375094975061068e9650505050505050565b3480156102af57600080fd5b50610243600160a060020a03600435811690602435166044356106af565b3480156102d957600080fd5b50610243600160a060020a036004358116906024351660443561073d565b34801561030357600080fd5b5061020360043561075e565b34801561031b57600080fd5b50610330600160a060020a0360043516610788565b60408051918252519081900360200190f35b34801561034e57600080fd5b50610330600160a060020a03600435166107bd565b34801561036f57600080fd5b506103306107f0565b34801561038457600080fd5b506102036107f6565b34801561039957600080fd5b50610176610805565b3480156103ae57600080fd5b50610243600160a060020a03600435166024351515610866565b3480156103d457600080fd5b506103dd6108ea565b6040805160ff9092168252519081900360200190f35b3480156103ff57600080fd5b50604080516020601f60643560048181013592830184900484028501840190955281845261024394600160a060020a0381358116956024803590921695604435953695608494019181908401838280828437509497506108f89650505050505050565b34801561046e57600080fd5b506103dd610920565b34801561048357600080fd5b50610176600435610929565b34801561049b57600080fd5b5061014d600160a060020a03600435811690602435166109de565b3480156104c257600080fd5b50610243600160a060020a0360043516610a0c565b7bffffffffffffffffffffffffffffffffffffffffffffffffffffffff19811660009081526020819052604090205460ff165b919050565b60058054604080516020601f600260001961010060018816150201909516949094049384018190048102820181019092528281526060939092909183018282801561059b5780601f106105705761010080835404028352916020019161059b565b820191906000526020600020905b81548152906001019060200180831161057e57829003601f168201915b505050505090505b90565b60006105b182610ac2565b15156105bc57600080fd5b50600090815260026020526040902054600160a060020a031690565b60006105e38261075e565b9050600160a060020a0383811690821614156105fe57600080fd5b33600160a060020a038216148061061a575061061a81336109de565b151561062557600080fd5b600082815260026020526040808220805473ffffffffffffffffffffffffffffffffffffffff1916600160a060020a0387811691821790925591518593918516917f8c5be1e5ebec7d5bd14f71427d1e84f3dd0314c0f7b2291e5b200ac8c7c3b92591a4505050565b600854600160a060020a03163314156106ab576106ab8282610adf565b5050565b6106b93382610b12565b15156106c457600080fd5b600160a060020a03821615156106d957600080fd5b6106e38382610b71565b6106ed8382610be0565b6106f78282610c76565b8082600160a060020a031684600160a060020a03167fddf252ad1be2c89b69c2b068fc378daa952ba7f163c4a11628f55a4df523b3ef60405160405180910390a4505050565b61075983838360206040519081016040528060008152506108f8565b505050565b600081815260016020526040812054600160a060020a031680151561078257600080fd5b92915050565b600854600090600160a060020a031633141561050a576107ad82600954600101610d06565b5050600980546001019081905590565b6000600160a060020a03821615156107d457600080fd5b50600160a060020a031660009081526003602052604090205490565b60095481565b600854600160a060020a031681565b60068054604080516020601f600260001961010060018816150201909516949094049384018190048102820181019092528281526060939092909183018282801561059b5780601f106105705761010080835404028352916020019161059b565b600160a060020a03821633141561087c57600080fd5b336000818152600460209081526040808320600160a060020a03871680855290835292819020805460ff1916861515908117909155815190815290519293927f17307eab39ab6107e8899845ad3d59bd9653f200f220920489ca2b5937696c31929181900390910190a35050565b600a54610100900460ff1681565b6109038484846106af565b61090f84848484610d61565b151561091a57600080fd5b50505050565b600a5460ff1681565b606061093482610ac2565b151561093f57600080fd5b60008281526007602090815260409182902080548351601f6002600019610100600186161502019093169290920491820184900484028101840190945280845290918301828280156109d25780601f106109a7576101008083540402835291602001916109d2565b820191906000526020600020905b8154815290600101906020018083116109b557829003601f168201915b50505050509050919050565b600160a060020a03918216600090815260046020908152604080832093909416825291909152205460ff1690565b600854600160a060020a0316331415610abf57600160a060020a0381161515610a9657604080517f08c379a000000000000000000000000000000000000000000000000000000000815260206004820152600f60248201527f496e76616c696420616464726573730000000000000000000000000000000000604482015290519081900360640190fd5b6008805473ffffffffffffffffffffffffffffffffffffffff1916600160a060020a0383161790555b50565b600090815260016020526040902054600160a060020a0316151590565b610ae882610ac2565b1515610af357600080fd5b6000828152600760209081526040909120825161075992840190610f1b565b600080610b1e8361075e565b905080600160a060020a031684600160a060020a03161480610b59575083600160a060020a0316610b4e846105a6565b600160a060020a0316145b80610b695750610b6981856109de565b949350505050565b81600160a060020a0316610b848261075e565b600160a060020a031614610b9757600080fd5b600081815260026020526040902054600160a060020a0316156106ab576000908152600260205260409020805473ffffffffffffffffffffffffffffffffffffffff1916905550565b81600160a060020a0316610bf38261075e565b600160a060020a031614610c0657600080fd5b600160a060020a038216600090815260036020526040902054610c3090600163ffffffff610ee316565b600160a060020a03909216600090815260036020908152604080832094909455918152600190915220805473ffffffffffffffffffffffffffffffffffffffff19169055565b600081815260016020526040902054600160a060020a031615610c9857600080fd5b6000818152600160208181526040808420805473ffffffffffffffffffffffffffffffffffffffff1916600160a060020a0388169081179091558452600390915290912054610ce691610efa565b600160a060020a0390921660009081526003602052604090209190915550565b600160a060020a0382161515610d1b57600080fd5b610d258282610c76565b6040518190600160a060020a038416906000907fddf252ad1be2c89b69c2b068fc378daa952ba7f163c4a11628f55a4df523b3ef908290a45050565b600080610d7685600160a060020a0316610f13565b1515610d855760019150610eda565b6040517f150b7a020000000000000000000000000000000000000000000000000000000081523360048201818152600160a060020a03898116602485015260448401889052608060648501908152875160848601528751918a169463150b7a0294938c938b938b93909160a490910190602085019080838360005b83811015610e18578181015183820152602001610e00565b50505050905090810190601f168015610e455780820380516001836020036101000a031916815260200191505b5095505050505050602060405180830381600087803b158015610e6757600080fd5b505af1158015610e7b573d6000803e3d6000fd5b505050506040513d6020811015610e9157600080fd5b50517bffffffffffffffffffffffffffffffffffffffffffffffffffffffff1981167f150b7a020000000000000000000000000000000000000000000000000000000014925090505b50949350505050565b60008083831115610ef357600080fd5b5050900390565b600082820183811015610f0c57600080fd5b9392505050565b6000903b1190565b828054600181600116156101000203166002900490600052602060002090601f016020900481019282601f10610f5c57805160ff1916838001178555610f89565b82800160010185558215610f89579182015b82811115610f89578251825591602001919060010190610f6e565b50610f95929150610f99565b5090565b6105a391905b80821115610f955760008155600101610f9f5600a165627a7a72305820f050429ca09717a4a92a61cc9c98d83b2f4dd0c811498c5b82ea2dd656dc03b10029",
  "source": "pragma solidity ^0.4.24;\n\nimport \"./Metadata.sol\";\n \ncontract Localidad is Metadata {\n    \n    uint8 public idLocalidad;\n    uint8 public tipoLocalidad;\n    \n    constructor(string memory name, string memory symbol, uint8 _tipoLocalidad, uint8 _idLocalidad) public Metadata(name, symbol){\n        tipoLocalidad = _tipoLocalidad;\n        idLocalidad = _idLocalidad;\n    }\n}",
  "sourcePath": "/Users/dvm/Documents/Development/WorkspaceEB/TFE/TruffleProject/contracts/Localidad.sol",
  "compiler": {
    "name": "solc",
    "version": "0.4.24+commit.e67f0147.Emscripten.clang"
  },
  "schemaVersion": "3.3.4",
  "updatedAt": "2021-03-18T18:49:21.769Z",
  "devdoc": {
    "methods": {
      "approve(address,uint256)": {
        "details": "Approves another address to transfer the given token ID The zero address indicates there is no approved address. There can only be one approved address per token at a given time. Can only be called by the token owner or an approved operator.",
        "params": {
          "to": "address to be approved for the given token ID",
          "tokenId": "uint256 ID of the token to be approved"
        }
      },
      "balanceOf(address)": {
        "details": "Gets the balance of the specified address",
        "params": {
          "owner": "address to query the balance of"
        },
        "return": "uint256 representing the amount owned by the passed address"
      },
      "getApproved(uint256)": {
        "details": "Gets the approved address for a token ID, or zero if no address set Reverts if the token ID does not exist.",
        "params": {
          "tokenId": "uint256 ID of the token to query the approval of"
        },
        "return": "address currently approved for the given token ID"
      },
      "isApprovedForAll(address,address)": {
        "details": "Tells whether an operator is approved by a given owner",
        "params": {
          "operator": "operator address which you want to query the approval of",
          "owner": "owner address which you want to query the approval of"
        },
        "return": "bool whether the given operator is approved by the given owner"
      },
      "name()": {
        "details": "Gets the token name",
        "return": "string representing the token name"
      },
      "ownerOf(uint256)": {
        "details": "Gets the owner of the specified token ID",
        "params": {
          "tokenId": "uint256 ID of the token to query the owner of"
        },
        "return": "owner address currently marked as the owner of the given token ID"
      },
      "safeTransferFrom(address,address,uint256)": {
        "details": "Safely transfers the ownership of a given token ID to another address If the target address is a contract, it must implement `onERC721Received`, which is called upon a safe transfer, and return the magic value `bytes4(keccak256(\"onERC721Received(address,address,uint256,bytes)\"))`; otherwise, the transfer is reverted.   * Requires the msg sender to be the owner, approved, or operator",
        "params": {
          "from": "current owner of the token",
          "to": "address to receive the ownership of the given token ID",
          "tokenId": "uint256 ID of the token to be transferred"
        }
      },
      "safeTransferFrom(address,address,uint256,bytes)": {
        "details": "Safely transfers the ownership of a given token ID to another address If the target address is a contract, it must implement `onERC721Received`, which is called upon a safe transfer, and return the magic value `bytes4(keccak256(\"onERC721Received(address,address,uint256,bytes)\"))`; otherwise, the transfer is reverted. Requires the msg sender to be the owner, approved, or operator",
        "params": {
          "_data": "bytes data to send along with a safe transfer check",
          "from": "current owner of the token",
          "to": "address to receive the ownership of the given token ID",
          "tokenId": "uint256 ID of the token to be transferred"
        }
      },
      "setApprovalForAll(address,bool)": {
        "details": "Sets or unsets the approval of a given operator An operator is allowed to transfer all tokens of the sender on their behalf",
        "params": {
          "approved": "representing the status of the approval to be set",
          "to": "operator address to set the approval"
        }
      },
      "supportsInterface(bytes4)": {
        "details": "implement supportsInterface(bytes4) using a lookup table"
      },
      "symbol()": {
        "details": "Gets the token symbol",
        "return": "string representing the token symbol"
      },
      "tokenURI(uint256)": {
        "details": "Returns an URI for a given token ID Throws if the token ID does not exist. May return an empty string.",
        "params": {
          "tokenId": "uint256 ID of the token to query"
        }
      },
      "transferFrom(address,address,uint256)": {
        "details": "Transfers the ownership of a given token ID to another address Usage of this method is discouraged, use `safeTransferFrom` whenever possible Requires the msg sender to be the owner, approved, or operator",
        "params": {
          "from": "current owner of the token",
          "to": "address to receive the ownership of the given token ID",
          "tokenId": "uint256 ID of the token to be transferred"
        }
      }
    }
  },
  "userdoc": {
    "methods": {}
  }
}