{
  "contractName": "Metadata",
  "abi": [
    {
      "constant": true,
      "inputs": [
        {
          "name": "interfaceId",
          "type": "bytes4"
        }
      ],
      "name": "supportsInterface",
      "outputs": [
        {
          "name": "",
          "type": "bool"
        }
      ],
      "payable": false,
      "stateMutability": "view",
      "type": "function"
    },
    {
      "constant": true,
      "inputs": [],
      "name": "name",
      "outputs": [
        {
          "name": "",
          "type": "string"
        }
      ],
      "payable": false,
      "stateMutability": "view",
      "type": "function"
    },
    {
      "constant": true,
      "inputs": [
        {
          "name": "tokenId",
          "type": "uint256"
        }
      ],
      "name": "getApproved",
      "outputs": [
        {
          "name": "",
          "type": "address"
        }
      ],
      "payable": false,
      "stateMutability": "view",
      "type": "function"
    },
    {
      "constant": false,
      "inputs": [
        {
          "name": "to",
          "type": "address"
        },
        {
          "name": "tokenId",
          "type": "uint256"
        }
      ],
      "name": "approve",
      "outputs": [],
      "payable": false,
      "stateMutability": "nonpayable",
      "type": "function"
    },
    {
      "constant": false,
      "inputs": [
        {
          "name": "from",
          "type": "address"
        },
        {
          "name": "to",
          "type": "address"
        },
        {
          "name": "tokenId",
          "type": "uint256"
        }
      ],
      "name": "transferFrom",
      "outputs": [],
      "payable": false,
      "stateMutability": "nonpayable",
      "type": "function"
    },
    {
      "constant": false,
      "inputs": [
        {
          "name": "from",
          "type": "address"
        },
        {
          "name": "to",
          "type": "address"
        },
        {
          "name": "tokenId",
          "type": "uint256"
        }
      ],
      "name": "safeTransferFrom",
      "outputs": [],
      "payable": false,
      "stateMutability": "nonpayable",
      "type": "function"
    },
    {
      "constant": true,
      "inputs": [
        {
          "name": "tokenId",
          "type": "uint256"
        }
      ],
      "name": "ownerOf",
      "outputs": [
        {
          "name": "",
          "type": "address"
        }
      ],
      "payable": false,
      "stateMutability": "view",
      "type": "function"
    },
    {
      "constant": true,
      "inputs": [
        {
          "name": "owner",
          "type": "address"
        }
      ],
      "name": "balanceOf",
      "outputs": [
        {
          "name": "",
          "type": "uint256"
        }
      ],
      "payable": false,
      "stateMutability": "view",
      "type": "function"
    },
    {
      "constant": true,
      "inputs": [],
      "name": "lastTokenIndex",
      "outputs": [
        {
          "name": "",
          "type": "uint256"
        }
      ],
      "payable": false,
      "stateMutability": "view",
      "type": "function"
    },
    {
      "constant": true,
      "inputs": [],
      "name": "owner",
      "outputs": [
        {
          "name": "",
          "type": "address"
        }
      ],
      "payable": false,
      "stateMutability": "view",
      "type": "function"
    },
    {
      "constant": true,
      "inputs": [],
      "name": "symbol",
      "outputs": [
        {
          "name": "",
          "type": "string"
        }
      ],
      "payable": false,
      "stateMutability": "view",
      "type": "function"
    },
    {
      "constant": false,
      "inputs": [
        {
          "name": "to",
          "type": "address"
        },
        {
          "name": "approved",
          "type": "bool"
        }
      ],
      "name": "setApprovalForAll",
      "outputs": [],
      "payable": false,
      "stateMutability": "nonpayable",
      "type": "function"
    },
    {
      "constant": false,
      "inputs": [
        {
          "name": "from",
          "type": "address"
        },
        {
          "name": "to",
          "type": "address"
        },
        {
          "name": "tokenId",
          "type": "uint256"
        },
        {
          "name": "_data",
          "type": "bytes"
        }
      ],
      "name": "safeTransferFrom",
      "outputs": [],
      "payable": false,
      "stateMutability": "nonpayable",
      "type": "function"
    },
    {
      "constant": true,
      "inputs": [
        {
          "name": "tokenId",
          "type": "uint256"
        }
      ],
      "name": "tokenURI",
      "outputs": [
        {
          "name": "",
          "type": "string"
        }
      ],
      "payable": false,
      "stateMutability": "view",
      "type": "function"
    },
    {
      "constant": true,
      "inputs": [
        {
          "name": "owner",
          "type": "address"
        },
        {
          "name": "operator",
          "type": "address"
        }
      ],
      "name": "isApprovedForAll",
      "outputs": [
        {
          "name": "",
          "type": "bool"
        }
      ],
      "payable": false,
      "stateMutability": "view",
      "type": "function"
    },
    {
      "constant": false,
      "inputs": [
        {
          "name": "newOwner",
          "type": "address"
        }
      ],
      "name": "transferOwnership",
      "outputs": [],
      "payable": false,
      "stateMutability": "nonpayable",
      "type": "function"
    },
    {
      "inputs": [
        {
          "name": "name",
          "type": "string"
        },
        {
          "name": "symbol",
          "type": "string"
        }
      ],
      "payable": false,
      "stateMutability": "nonpayable",
      "type": "constructor"
    },
    {
      "anonymous": false,
      "inputs": [
        {
          "indexed": true,
          "name": "from",
          "type": "address"
        },
        {
          "indexed": true,
          "name": "to",
          "type": "address"
        },
        {
          "indexed": true,
          "name": "tokenId",
          "type": "uint256"
        }
      ],
      "name": "Transfer",
      "type": "event"
    },
    {
      "anonymous": false,
      "inputs": [
        {
          "indexed": true,
          "name": "owner",
          "type": "address"
        },
        {
          "indexed": true,
          "name": "approved",
          "type": "address"
        },
        {
          "indexed": true,
          "name": "tokenId",
          "type": "uint256"
        }
      ],
      "name": "Approval",
      "type": "event"
    },
    {
      "anonymous": false,
      "inputs": [
        {
          "indexed": true,
          "name": "owner",
          "type": "address"
        },
        {
          "indexed": true,
          "name": "operator",
          "type": "address"
        },
        {
          "indexed": false,
          "name": "approved",
          "type": "bool"
        }
      ],
      "name": "ApprovalForAll",
      "type": "event"
    },
    {
      "constant": false,
      "inputs": [
        {
          "name": "to",
          "type": "address"
        }
      ],
      "name": "mint",
      "outputs": [
        {
          "name": "",
          "type": "uint256"
        }
      ],
      "payable": false,
      "stateMutability": "nonpayable",
      "type": "function"
    },
    {
      "constant": false,
      "inputs": [
        {
          "name": "tokenId",
          "type": "uint256"
        },
        {
          "name": "_tokenURI",
          "type": "string"
        }
      ],
      "name": "setTokenURI",
      "outputs": [],
      "payable": false,
      "stateMutability": "nonpayable",
      "type": "function"
    }
  ],
  "bytecode": "0x60806040523480156200001157600080fd5b50604051620011ae380380620011ae833981016040528051602082015190820191018181620000697f01ffc9a7000000000000000000000000000000000000000000000000000000006401000000006200011a810204565b6200009d7f80ac58cd000000000000000000000000000000000000000000000000000000006401000000006200011a810204565b8151620000b290600590602085019062000187565b508051620000c890600690602084019062000187565b50620000fd7f5b5e139f000000000000000000000000000000000000000000000000000000006401000000006200011a810204565b505060088054600160a060020a03191633179055506200022c9050565b7fffffffff0000000000000000000000000000000000000000000000000000000080821614156200014a57600080fd5b7fffffffff00000000000000000000000000000000000000000000000000000000166000908152602081905260409020805460ff19166001179055565b828054600181600116156101000203166002900490600052602060002090601f016020900481019282601f10620001ca57805160ff1916838001178555620001fa565b82800160010185558215620001fa579182015b82811115620001fa578251825591602001919060010190620001dd565b50620002089291506200020c565b5090565b6200022991905b8082111562000208576000815560010162000213565b90565b610f72806200023c6000396000f3006080604052600436106100fb5763ffffffff7c010000000000000000000000000000000000000000000000000000000060003504166301ffc9a7811461010057806306fdde031461014b578063081812fc146101d5578063095ea7b314610209578063162094c41461022f57806323b872dd1461028d57806342842e0e146102b75780636352211e146102e15780636a627842146102f957806370a082311461032c57806383012e221461034d5780638da5cb5b1461036257806395d89b4114610377578063a22cb4651461038c578063b88d4fde146103b2578063c87b56dd14610421578063e985e9c514610439578063f2fde38b14610460575b600080fd5b34801561010c57600080fd5b506101377bffffffffffffffffffffffffffffffffffffffffffffffffffffffff1960043516610481565b604080519115158252519081900360200190f35b34801561015757600080fd5b506101606104b9565b6040805160208082528351818301528351919283929083019185019080838360005b8381101561019a578181015183820152602001610182565b50505050905090810190601f1680156101c75780820380516001836020036101000a031916815260200191505b509250505060405180910390f35b3480156101e157600080fd5b506101ed600435610550565b60408051600160a060020a039092168252519081900360200190f35b34801561021557600080fd5b5061022d600160a060020a0360043516602435610582565b005b34801561023b57600080fd5b5060408051602060046024803582810135601f810185900485028601850190965285855261022d9583359536956044949193909101919081908401838280828437509497506106389650505050505050565b34801561029957600080fd5b5061022d600160a060020a0360043581169060243516604435610659565b3480156102c357600080fd5b5061022d600160a060020a03600435811690602435166044356106e7565b3480156102ed57600080fd5b506101ed600435610708565b34801561030557600080fd5b5061031a600160a060020a0360043516610732565b60408051918252519081900360200190f35b34801561033857600080fd5b5061031a600160a060020a0360043516610767565b34801561035957600080fd5b5061031a61079a565b34801561036e57600080fd5b506101ed6107a0565b34801561038357600080fd5b506101606107af565b34801561039857600080fd5b5061022d600160a060020a03600435166024351515610810565b3480156103be57600080fd5b50604080516020601f60643560048181013592830184900484028501840190955281845261022d94600160a060020a0381358116956024803590921695604435953695608494019181908401838280828437509497506108949650505050505050565b34801561042d57600080fd5b506101606004356108bc565b34801561044557600080fd5b50610137600160a060020a0360043581169060243516610971565b34801561046c57600080fd5b5061022d600160a060020a036004351661099f565b7bffffffffffffffffffffffffffffffffffffffffffffffffffffffff19811660009081526020819052604090205460ff165b919050565b60058054604080516020601f60026000196101006001881615020190951694909404938401819004810282018101909252828152606093909290918301828280156105455780601f1061051a57610100808354040283529160200191610545565b820191906000526020600020905b81548152906001019060200180831161052857829003601f168201915b505050505090505b90565b600061055b82610a55565b151561056657600080fd5b50600090815260026020526040902054600160a060020a031690565b600061058d82610708565b9050600160a060020a0383811690821614156105a857600080fd5b33600160a060020a03821614806105c457506105c48133610971565b15156105cf57600080fd5b600082815260026020526040808220805473ffffffffffffffffffffffffffffffffffffffff1916600160a060020a0387811691821790925591518593918516917f8c5be1e5ebec7d5bd14f71427d1e84f3dd0314c0f7b2291e5b200ac8c7c3b92591a4505050565b600854600160a060020a0316331415610655576106558282610a72565b5050565b6106633382610aa5565b151561066e57600080fd5b600160a060020a038216151561068357600080fd5b61068d8382610b04565b6106978382610b73565b6106a18282610c09565b8082600160a060020a031684600160a060020a03167fddf252ad1be2c89b69c2b068fc378daa952ba7f163c4a11628f55a4df523b3ef60405160405180910390a4505050565b6107038383836020604051908101604052806000815250610894565b505050565b600081815260016020526040812054600160a060020a031680151561072c57600080fd5b92915050565b600854600090600160a060020a03163314156104b45761075782600954600101610c99565b5050600980546001019081905590565b6000600160a060020a038216151561077e57600080fd5b50600160a060020a031660009081526003602052604090205490565b60095481565b600854600160a060020a031681565b60068054604080516020601f60026000196101006001881615020190951694909404938401819004810282018101909252828152606093909290918301828280156105455780601f1061051a57610100808354040283529160200191610545565b600160a060020a03821633141561082657600080fd5b336000818152600460209081526040808320600160a060020a03871680855290835292819020805460ff1916861515908117909155815190815290519293927f17307eab39ab6107e8899845ad3d59bd9653f200f220920489ca2b5937696c31929181900390910190a35050565b61089f848484610659565b6108ab84848484610cf4565b15156108b657600080fd5b50505050565b60606108c782610a55565b15156108d257600080fd5b60008281526007602090815260409182902080548351601f6002600019610100600186161502019093169290920491820184900484028101840190945280845290918301828280156109655780601f1061093a57610100808354040283529160200191610965565b820191906000526020600020905b81548152906001019060200180831161094857829003601f168201915b50505050509050919050565b600160a060020a03918216600090815260046020908152604080832093909416825291909152205460ff1690565b600854600160a060020a0316331415610a5257600160a060020a0381161515610a2957604080517f08c379a000000000000000000000000000000000000000000000000000000000815260206004820152600f60248201527f496e76616c696420616464726573730000000000000000000000000000000000604482015290519081900360640190fd5b6008805473ffffffffffffffffffffffffffffffffffffffff1916600160a060020a0383161790555b50565b600090815260016020526040902054600160a060020a0316151590565b610a7b82610a55565b1515610a8657600080fd5b6000828152600760209081526040909120825161070392840190610eae565b600080610ab183610708565b905080600160a060020a031684600160a060020a03161480610aec575083600160a060020a0316610ae184610550565b600160a060020a0316145b80610afc5750610afc8185610971565b949350505050565b81600160a060020a0316610b1782610708565b600160a060020a031614610b2a57600080fd5b600081815260026020526040902054600160a060020a031615610655576000908152600260205260409020805473ffffffffffffffffffffffffffffffffffffffff1916905550565b81600160a060020a0316610b8682610708565b600160a060020a031614610b9957600080fd5b600160a060020a038216600090815260036020526040902054610bc390600163ffffffff610e7616565b600160a060020a03909216600090815260036020908152604080832094909455918152600190915220805473ffffffffffffffffffffffffffffffffffffffff19169055565b600081815260016020526040902054600160a060020a031615610c2b57600080fd5b6000818152600160208181526040808420805473ffffffffffffffffffffffffffffffffffffffff1916600160a060020a0388169081179091558452600390915290912054610c7991610e8d565b600160a060020a0390921660009081526003602052604090209190915550565b600160a060020a0382161515610cae57600080fd5b610cb88282610c09565b6040518190600160a060020a038416906000907fddf252ad1be2c89b69c2b068fc378daa952ba7f163c4a11628f55a4df523b3ef908290a45050565b600080610d0985600160a060020a0316610ea6565b1515610d185760019150610e6d565b6040517f150b7a020000000000000000000000000000000000000000000000000000000081523360048201818152600160a060020a03898116602485015260448401889052608060648501908152875160848601528751918a169463150b7a0294938c938b938b93909160a490910190602085019080838360005b83811015610dab578181015183820152602001610d93565b50505050905090810190601f168015610dd85780820380516001836020036101000a031916815260200191505b5095505050505050602060405180830381600087803b158015610dfa57600080fd5b505af1158015610e0e573d6000803e3d6000fd5b505050506040513d6020811015610e2457600080fd5b50517bffffffffffffffffffffffffffffffffffffffffffffffffffffffff1981167f150b7a020000000000000000000000000000000000000000000000000000000014925090505b50949350505050565b60008083831115610e8657600080fd5b5050900390565b600082820183811015610e9f57600080fd5b9392505050565b6000903b1190565b828054600181600116156101000203166002900490600052602060002090601f016020900481019282601f10610eef57805160ff1916838001178555610f1c565b82800160010185558215610f1c579182015b82811115610f1c578251825591602001919060010190610f01565b50610f28929150610f2c565b5090565b61054d91905b80821115610f285760008155600101610f325600a165627a7a723058206dcd69f5d624b88f365754782892056665338453b3eec8a478df5dd0edd4ff3f0029",
  "source": "pragma solidity ^0.4.24;\n\nimport \"./contracts/token/ERC721/ERC721Metadata.sol\";\nimport \"./Ownable.sol\";\n \ncontract Metadata is ERC721Metadata, Ownable {\n    \n    uint256 public lastTokenIndex;\n    \n    constructor(string memory name, string memory symbol) public ERC721Metadata(name, symbol){\n    }\n    \n    function mint(address to) public onlyOwner returns(uint256) {\n        _mint(to, lastTokenIndex + 1);\n        lastTokenIndex = lastTokenIndex + 1;\n        return lastTokenIndex;\n    }\n    \n    function setTokenURI(uint256 tokenId, string memory _tokenURI) public onlyOwner {\n        _setTokenURI(tokenId,_tokenURI);\n    }\n  \n}",
  "sourcePath": "/Users/dvm/Documents/Development/WorkspaceEB/TFE/TruffleProject/contracts/Metadata.sol",
  "compiler": {
    "name": "solc",
    "version": "0.4.24+commit.e67f0147.Emscripten.clang"
  },
  "schemaVersion": "3.3.4",
  "updatedAt": "2021-03-18T18:49:21.772Z",
  "devdoc": {
    "methods": {
      "approve(address,uint256)": {
        "details": "Approves another address to transfer the given token ID The zero address indicates there is no approved address. There can only be one approved address per token at a given time. Can only be called by the token owner or an approved operator.",
        "params": {
          "to": "address to be approved for the given token ID",
          "tokenId": "uint256 ID of the token to be approved"
        }
      },
      "balanceOf(address)": {
        "details": "Gets the balance of the specified address",
        "params": {
          "owner": "address to query the balance of"
        },
        "return": "uint256 representing the amount owned by the passed address"
      },
      "getApproved(uint256)": {
        "details": "Gets the approved address for a token ID, or zero if no address set Reverts if the token ID does not exist.",
        "params": {
          "tokenId": "uint256 ID of the token to query the approval of"
        },
        "return": "address currently approved for the given token ID"
      },
      "isApprovedForAll(address,address)": {
        "details": "Tells whether an operator is approved by a given owner",
        "params": {
          "operator": "operator address which you want to query the approval of",
          "owner": "owner address which you want to query the approval of"
        },
        "return": "bool whether the given operator is approved by the given owner"
      },
      "name()": {
        "details": "Gets the token name",
        "return": "string representing the token name"
      },
      "ownerOf(uint256)": {
        "details": "Gets the owner of the specified token ID",
        "params": {
          "tokenId": "uint256 ID of the token to query the owner of"
        },
        "return": "owner address currently marked as the owner of the given token ID"
      },
      "safeTransferFrom(address,address,uint256)": {
        "details": "Safely transfers the ownership of a given token ID to another address If the target address is a contract, it must implement `onERC721Received`, which is called upon a safe transfer, and return the magic value `bytes4(keccak256(\"onERC721Received(address,address,uint256,bytes)\"))`; otherwise, the transfer is reverted.   * Requires the msg sender to be the owner, approved, or operator",
        "params": {
          "from": "current owner of the token",
          "to": "address to receive the ownership of the given token ID",
          "tokenId": "uint256 ID of the token to be transferred"
        }
      },
      "safeTransferFrom(address,address,uint256,bytes)": {
        "details": "Safely transfers the ownership of a given token ID to another address If the target address is a contract, it must implement `onERC721Received`, which is called upon a safe transfer, and return the magic value `bytes4(keccak256(\"onERC721Received(address,address,uint256,bytes)\"))`; otherwise, the transfer is reverted. Requires the msg sender to be the owner, approved, or operator",
        "params": {
          "_data": "bytes data to send along with a safe transfer check",
          "from": "current owner of the token",
          "to": "address to receive the ownership of the given token ID",
          "tokenId": "uint256 ID of the token to be transferred"
        }
      },
      "setApprovalForAll(address,bool)": {
        "details": "Sets or unsets the approval of a given operator An operator is allowed to transfer all tokens of the sender on their behalf",
        "params": {
          "approved": "representing the status of the approval to be set",
          "to": "operator address to set the approval"
        }
      },
      "supportsInterface(bytes4)": {
        "details": "implement supportsInterface(bytes4) using a lookup table"
      },
      "symbol()": {
        "details": "Gets the token symbol",
        "return": "string representing the token symbol"
      },
      "tokenURI(uint256)": {
        "details": "Returns an URI for a given token ID Throws if the token ID does not exist. May return an empty string.",
        "params": {
          "tokenId": "uint256 ID of the token to query"
        }
      },
      "transferFrom(address,address,uint256)": {
        "details": "Transfers the ownership of a given token ID to another address Usage of this method is discouraged, use `safeTransferFrom` whenever possible Requires the msg sender to be the owner, approved, or operator",
        "params": {
          "from": "current owner of the token",
          "to": "address to receive the ownership of the given token ID",
          "tokenId": "uint256 ID of the token to be transferred"
        }
      }
    }
  },
  "userdoc": {
    "methods": {}
  }
}