{
  "contractName": "TemporadaTest",
  "abi": [
    {
      "constant": true,
      "inputs": [],
      "name": "porcentajeAlquiler",
      "outputs": [
        {
          "name": "",
          "type": "uint8"
        }
      ],
      "payable": false,
      "stateMutability": "view",
      "type": "function"
    },
    {
      "constant": true,
      "inputs": [],
      "name": "dineroAbono",
      "outputs": [
        {
          "name": "",
          "type": "address"
        }
      ],
      "payable": false,
      "stateMutability": "view",
      "type": "function"
    },
    {
      "constant": true,
      "inputs": [],
      "name": "tiposLocalidad",
      "outputs": [
        {
          "name": "",
          "type": "uint8"
        }
      ],
      "payable": false,
      "stateMutability": "view",
      "type": "function"
    },
    {
      "constant": true,
      "inputs": [],
      "name": "actualIdLocalidad",
      "outputs": [
        {
          "name": "",
          "type": "uint8"
        }
      ],
      "payable": false,
      "stateMutability": "view",
      "type": "function"
    },
    {
      "constant": true,
      "inputs": [],
      "name": "faseTemporada",
      "outputs": [
        {
          "name": "",
          "type": "uint8"
        }
      ],
      "payable": false,
      "stateMutability": "view",
      "type": "function"
    },
    {
      "constant": true,
      "inputs": [],
      "name": "factorIncrementoTipo",
      "outputs": [
        {
          "name": "",
          "type": "uint8"
        }
      ],
      "payable": false,
      "stateMutability": "view",
      "type": "function"
    },
    {
      "constant": false,
      "inputs": [],
      "name": "iniciaTemporada",
      "outputs": [],
      "payable": false,
      "stateMutability": "nonpayable",
      "type": "function"
    },
    {
      "constant": true,
      "inputs": [],
      "name": "precioBase",
      "outputs": [
        {
          "name": "",
          "type": "uint8"
        }
      ],
      "payable": false,
      "stateMutability": "view",
      "type": "function"
    },
    {
      "constant": false,
      "inputs": [],
      "name": "iniciaPeriodoAbono",
      "outputs": [],
      "payable": false,
      "stateMutability": "nonpayable",
      "type": "function"
    },
    {
      "constant": true,
      "inputs": [],
      "name": "owner",
      "outputs": [
        {
          "name": "",
          "type": "address"
        }
      ],
      "payable": false,
      "stateMutability": "view",
      "type": "function"
    },
    {
      "constant": true,
      "inputs": [],
      "name": "actualIdAbono",
      "outputs": [
        {
          "name": "",
          "type": "uint8"
        }
      ],
      "payable": false,
      "stateMutability": "view",
      "type": "function"
    },
    {
      "constant": true,
      "inputs": [],
      "name": "nombre",
      "outputs": [
        {
          "name": "",
          "type": "string"
        }
      ],
      "payable": false,
      "stateMutability": "view",
      "type": "function"
    },
    {
      "constant": false,
      "inputs": [],
      "name": "finalizaTemporada",
      "outputs": [],
      "payable": false,
      "stateMutability": "nonpayable",
      "type": "function"
    },
    {
      "constant": false,
      "inputs": [
        {
          "name": "newOwner",
          "type": "address"
        }
      ],
      "name": "transferOwnership",
      "outputs": [],
      "payable": false,
      "stateMutability": "nonpayable",
      "type": "function"
    },
    {
      "constant": true,
      "inputs": [],
      "name": "actualIdEspectaculo",
      "outputs": [
        {
          "name": "",
          "type": "uint8"
        }
      ],
      "payable": false,
      "stateMutability": "view",
      "type": "function"
    },
    {
      "inputs": [
        {
          "name": "nameTemporada",
          "type": "string"
        },
        {
          "name": "dineroInicial",
          "type": "uint256"
        },
        {
          "name": "_precioBase",
          "type": "uint8"
        },
        {
          "name": "_tiposLocalidad",
          "type": "uint8"
        },
        {
          "name": "_factorIncrementoTipo",
          "type": "uint8"
        },
        {
          "name": "_porcentajeAlquiler",
          "type": "uint8"
        }
      ],
      "payable": false,
      "stateMutability": "nonpayable",
      "type": "constructor"
    },
    {
      "anonymous": false,
      "inputs": [
        {
          "indexed": false,
          "name": "localidad",
          "type": "address"
        },
        {
          "indexed": false,
          "name": "id",
          "type": "uint8"
        }
      ],
      "name": "LoalidadCreada",
      "type": "event"
    },
    {
      "anonymous": false,
      "inputs": [
        {
          "indexed": false,
          "name": "espectaculo",
          "type": "address"
        },
        {
          "indexed": false,
          "name": "id",
          "type": "uint8"
        }
      ],
      "name": "EspectaculoCreado",
      "type": "event"
    },
    {
      "anonymous": false,
      "inputs": [
        {
          "indexed": false,
          "name": "abono",
          "type": "address"
        },
        {
          "indexed": false,
          "name": "id",
          "type": "uint8"
        }
      ],
      "name": "AbonoComprado",
      "type": "event"
    },
    {
      "anonymous": false,
      "inputs": [
        {
          "indexed": false,
          "name": "abono",
          "type": "address"
        },
        {
          "indexed": false,
          "name": "id",
          "type": "uint8"
        }
      ],
      "name": "AbonoAlquilado",
      "type": "event"
    },
    {
      "anonymous": false,
      "inputs": [
        {
          "indexed": false,
          "name": "abono",
          "type": "address"
        },
        {
          "indexed": false,
          "name": "id",
          "type": "uint8"
        }
      ],
      "name": "FechaActualizada",
      "type": "event"
    },
    {
      "constant": false,
      "inputs": [
        {
          "name": "tipoLocalidad",
          "type": "uint8"
        },
        {
          "name": "nameLocalidad",
          "type": "string"
        },
        {
          "name": "symbolLocalidad",
          "type": "string"
        },
        {
          "name": "uriLocalidad",
          "type": "string"
        }
      ],
      "name": "creaLocalidad",
      "outputs": [],
      "payable": false,
      "stateMutability": "nonpayable",
      "type": "function"
    },
    {
      "constant": false,
      "inputs": [
        {
          "name": "fechaEspectaculo",
          "type": "uint256"
        },
        {
          "name": "nameEspectaculo",
          "type": "string"
        },
        {
          "name": "symbolEspectaculo",
          "type": "string"
        },
        {
          "name": "uriEspectaculo",
          "type": "string"
        }
      ],
      "name": "creaEspectaculo",
      "outputs": [],
      "payable": false,
      "stateMutability": "nonpayable",
      "type": "function"
    },
    {
      "constant": false,
      "inputs": [
        {
          "name": "localidadId",
          "type": "uint8"
        },
        {
          "name": "_fechaDesde",
          "type": "uint256"
        },
        {
          "name": "_fechaHasta",
          "type": "uint256"
        }
      ],
      "name": "actualizaFechas",
      "outputs": [],
      "payable": false,
      "stateMutability": "nonpayable",
      "type": "function"
    }
  ],
  "bytecode": "0x60806040523480156200001157600080fd5b506040516200433d3803806200433d8339810160409081528151602080840151928401516060850151608086015160a087015160008054600160a060020a0319163317905594909601805190969294919362000073916001918901906200014e565b506002805464ff00000000191664010000000060ff878116919091029190911765ff0000000000191665010000000000868316021766ff00000000000019166601000000000000858316021767ff000000000000001916670100000000000000918416919091021790553385620000e9620001d3565b600160a060020a0390921682526020820152604080519182900301906000f0801580156200011b573d6000803e3d6000fd5b50600260086101000a815481600160a060020a030219169083600160a060020a0316021790555050505050505062000204565b828054600181600116156101000203166002900490600052602060002090601f016020900481019282601f106200019157805160ff1916838001178555620001c1565b82800160010185558215620001c1579182015b82811115620001c1578251825591602001919060010190620001a4565b50620001cf929150620001e4565b5090565b6040516107db8062003b6283390190565b6200020191905b80821115620001cf5760008155600101620001eb565b90565b61394e80620002146000396000f3006080604052600436106200010e5763ffffffff7c010000000000000000000000000000000000000000000000000000000060003504166301f9d1c5811462000113578063041b59d61462000141578063101dab9014620001755780632706859814620002575780632c64ebfb146200026f57806345557f3c14620002875780634b54cd8514620002c45780634c63937314620002dc578063569fd80114620002f45780635df0fa4f146200030c5780638ba33bf714620003e95780638da5cb5b1462000401578063918274e5146200041957806394874e30146200043d578063bc7b35b21462000455578063d0dc0f8614620004e5578063f2fde38b14620004fd578063fdeb98651462000521575b600080fd5b3480156200012057600080fd5b506200012b62000539565b6040805160ff9092168252519081900360200190f35b3480156200014e57600080fd5b50620001596200054d565b60408051600160a060020a039092168252519081900360200190f35b3480156200018257600080fd5b5060408051602060046024803582810135601f81018590048502860185019096528585526200025595833560ff1695369560449491939091019190819084018382808284375050604080516020601f89358b018035918201839004830284018301909452808352979a99988101979196509182019450925082915084018382808284375050604080516020601f89358b018035918201839004830284018301909452808352979a999881019791965091820194509250829150840183828082843750949750620005689650505050505050565b005b3480156200026457600080fd5b506200012b62000a8f565b3480156200027c57600080fd5b506200012b62000aa1565b3480156200029457600080fd5b506200029f62000aaf565b60405180826003811115620002b057fe5b60ff16815260200191505060405180910390f35b348015620002d157600080fd5b506200012b62000ab8565b348015620002e957600080fd5b506200025562000acb565b3480156200030157600080fd5b506200012b62000b65565b3480156200031957600080fd5b5060408051602060046024803582810135601f81018590048502860185019096528585526200025595833595369560449491939091019190819084018382808284375050604080516020601f89358b018035918201839004830284018301909452808352979a99988101979196509182019450925082915084018382808284375050604080516020601f89358b018035918201839004830284018301909452808352979a99988101979196509182019450925082915084018382808284375094975062000b769650505050505050565b348015620003f657600080fd5b50620002556200101a565b3480156200040e57600080fd5b5062000159620010d8565b3480156200042657600080fd5b506200025560ff60043516602435604435620010e7565b3480156200044a57600080fd5b506200012b62001260565b3480156200046257600080fd5b506200046d62001270565b6040805160208082528351818301528351919283929083019185019080838360005b83811015620004a95781810151838201526020016200048f565b50505050905090810190601f168015620004d75780820380516001836020036101000a031916815260200191505b509250505060405180910390f35b348015620004f257600080fd5b506200025562001301565b3480156200050a57600080fd5b5062000255600160a060020a036004351662001399565b3480156200052e57600080fd5b506200012b62001440565b600254670100000000000000900460ff1681565b600254680100000000000000009004600160a060020a031681565b60008054600160a060020a031633141562000a8857600060025460ff1660038111156200059157fe5b1462000613576040805160008051602062003903833981519152815260206004820152603f60248201527f53c3b36c6f207365207065726d6974656e2061c3b161646972206dc3a173206c60448201527f6f63616c69646164657320656e206661736520646520637265616369c3b36e00606482015290519081900360840190fd5b60008560ff16101580156200063a575060025460ff65010000000000909104811690861611155b1515620006bd576040805160008051602062003903833981519152815260206004820152603b60248201527f53c3b36c6f207365207065726d6974656e206c6f63616c69646164657320646560448201527f6c2072616e676f206465207469706f7320646566696e69646f73200000000000606482015290519081900360840190fd5b838386600260019054906101000a900460ff16600101620006dd6200144f565b60ff80841660408301528216606082015260808082528551908201528451819060208083019160a084019189019080838360005b838110156200072b57818101518382015260200162000711565b50505050905090810190601f168015620007595780820380516001836020036101000a031916815260200191505b50838103825286518152865160209182019188019080838360005b838110156200078e57818101518382015260200162000774565b50505050905090810190601f168015620007bc5780820380516001836020036101000a031916815260200191505b509650505050505050604051809103906000f080158015620007e2573d6000803e3d6000fd5b5060025460ff61010090910481166001011660009081526003602090815260408083208054600160a060020a0380871673ffffffffffffffffffffffffffffffffffffffff199092168217909255845483517f6a6278420000000000000000000000000000000000000000000000000000000081529216600483015291519495509093636a62784293602480840194938390030190829087803b1580156200088957600080fd5b505af11580156200089e573d6000803e3d6000fd5b505050506040513d6020811015620008b557600080fd5b5050604080517f162094c400000000000000000000000000000000000000000000000000000000815260016004820181815260248301938452855160448401528551600160a060020a0386169463162094c494889392606490910190602085019080838360005b83811015620009365781810151838201526020016200091c565b50505050905090810190601f168015620009645780820380516001836020036101000a031916815260200191505b509350505050600060405180830381600087803b1580156200098557600080fd5b505af11580156200099a573d6000803e3d6000fd5b505060008054604080517ff2fde38b000000000000000000000000000000000000000000000000000000008152600160a060020a0392831660048201529051918616945063f2fde38b9350602480820193929182900301818387803b15801562000a0357600080fd5b505af115801562000a18573d6000803e3d6000fd5b50506002805460ff61010080830482166001018216810261ff0019909316929092179283905560408051600160a060020a03881681529290930416602082015281517fdc744570695659d28ad12905714ffc41138d0d6903f6b83002daa8f9f98b18ca9450908190039091019150a15b5050505050565b60025465010000000000900460ff1681565b600254610100900460ff1681565b60025460ff1681565b6002546601000000000000900460ff1681565b600054600160a060020a031633141562000b6357600160025460ff16600381111562000af357fe5b1462000b4f576040805160008051602062003903833981519152815260206004820152601c60248201527f4465626520657374c3a17220656e20666173652064652061626f6e6f00000000604482015290519081900360640190fd5b60028054819060ff19166001825b02179055505b565b600254640100000000900460ff1681565b60008054600160a060020a031633141562000a8857600060025460ff16600381111562000b9f57fe5b1462000c47576040805160008051602062003903833981519152815260206004820152604160248201527f53c3b36c6f207365207065726d6974656e2061c3b161646972206dc3a173206560448201527f7370656374c3a163756c6f7320656e206661736520646520637265616369c3b360648201527f6e00000000000000000000000000000000000000000000000000000000000000608482015290519081900360a40190fd5b8383866002809054906101000a900460ff1660010162000c6662001460565b6040810183905260ff8216606082015260808082528551908201528451819060208083019160a084019189019080838360005b8381101562000cb357818101518382015260200162000c99565b50505050905090810190601f16801562000ce15780820380516001836020036101000a031916815260200191505b50838103825286518152865160209182019188019080838360005b8381101562000d1657818101518382015260200162000cfc565b50505050905090810190601f16801562000d445780820380516001836020036101000a031916815260200191505b509650505050505050604051809103906000f08015801562000d6a573d6000803e3d6000fd5b5060025462010000900460ff908116600101166000908152600460208181526040808420805473ffffffffffffffffffffffffffffffffffffffff1916600160a060020a03878116918217909255855483517f6a62784200000000000000000000000000000000000000000000000000000000815292169482019490945290519495509193636a627842936024808501948390030190829087803b15801562000e1257600080fd5b505af115801562000e27573d6000803e3d6000fd5b505050506040513d602081101562000e3e57600080fd5b5050604080517f162094c400000000000000000000000000000000000000000000000000000000815260016004820181815260248301938452855160448401528551600160a060020a0386169463162094c494889392606490910190602085019080838360005b8381101562000ebf57818101518382015260200162000ea5565b50505050905090810190601f16801562000eed5780820380516001836020036101000a031916815260200191505b509350505050600060405180830381600087803b15801562000f0e57600080fd5b505af115801562000f23573d6000803e3d6000fd5b505060008054604080517ff2fde38b000000000000000000000000000000000000000000000000000000008152600160a060020a0392831660048201529051918616945063f2fde38b9350602480820193929182900301818387803b15801562000f8c57600080fd5b505af115801562000fa1573d6000803e3d6000fd5b50506002805462ff0000198116620100009182900460ff90811660010181168302919091179283905560408051600160a060020a03881681529290930416602082015281517f7a86b59cf6a0a92394106fac40b4955db2f0cab445ac0c1343607e15b92fa6769450908190039091019150a15050505050565b600054600160a060020a031633141562000b6357600060025460ff1660038111156200104257fe5b14620010c4576040805160008051602062003903833981519152815260206004820152603f60248201527f4465626520657374c3a17220656e206661736520646520637265616369c3b36e60448201527f207061726120706173617220616c20706572696f646f2064652061626f6e6f00606482015290519081900360840190fd5b600280546001919060ff1916828062000b5d565b600054600160a060020a031681565b60ff83166000908152600560205260408082205481517ff1e32ad400000000000000000000000000000000000000000000000000000000815260048101869052602481018590529151600160a060020a039091169263f1e32ad4926044808201939182900301818387803b1580156200115f57600080fd5b505af115801562001174573d6000803e3d6000fd5b5050505060ff831660009081526005602090815260408083205481517f8018dbab00000000000000000000000000000000000000000000000000000000815291517f35d136ac76f5acdd5d64adb513c1741401405008084a4c97cdc86499897265f694600160a060020a03909216938493638018dbab93600480830194928390030190829087803b1580156200120957600080fd5b505af11580156200121e573d6000803e3d6000fd5b505050506040513d60208110156200123557600080fd5b505160408051600160a060020a03909316835260ff90911660208301528051918290030190a1505050565b6002546301000000900460ff1681565b60018054604080516020600284861615610100026000190190941693909304601f81018490048402820184019092528181529291830182828015620012f95780601f10620012cd57610100808354040283529160200191620012f9565b820191906000526020600020905b815481529060010190602001808311620012db57829003601f168201915b505050505081565b600054600160a060020a031633141562000b63576002805460ff1660038111156200132857fe5b1462001384576040805160008051602062003903833981519152815260206004820152601d60248201527f4465626520657374c3a17220656e206661736520646520696e6963696f000000604482015290519081900360640190fd5b600280546003919060ff191660018362000b5d565b600054600160a060020a03163314156200143d57600160a060020a038116151562001414576040805160008051602062003903833981519152815260206004820152600f60248201527f496e76616c696420616464726573730000000000000000000000000000000000604482015290519081900360640190fd5b6000805473ffffffffffffffffffffffffffffffffffffffff1916600160a060020a0383161790555b50565b60025462010000900460ff1681565b60405161124f806200147283390190565b60405161124280620026c183390190560060806040523480156200001157600080fd5b506040516200124f3803806200124f8339810160409081528151602083015191830151606084015191840193929092019190838381816200007b7f01ffc9a7000000000000000000000000000000000000000000000000000000006401000000006200014e810204565b620000af7f80ac58cd000000000000000000000000000000000000000000000000000000006401000000006200014e810204565b8151620000c4906005906020850190620001bb565b508051620000da906006906020840190620001bb565b506200010f7f5b5e139f000000000000000000000000000000000000000000000000000000006401000000006200014e810204565b50506008805433600160a060020a03199091161790555050600a805461ff00191661010060ff948516021760ff19169190921617905550620002609050565b7fffffffff0000000000000000000000000000000000000000000000000000000080821614156200017e57600080fd5b7fffffffff00000000000000000000000000000000000000000000000000000000166000908152602081905260409020805460ff19166001179055565b828054600181600116156101000203166002900490600052602060002090601f016020900481019282601f10620001fe57805160ff19168380011785556200022e565b828001600101855582156200022e579182015b828111156200022e57825182559160200191906001019062000211565b506200023c92915062000240565b5090565b6200025d91905b808211156200023c576000815560010162000247565b90565b610fdf80620002706000396000f3006080604052600436106101115763ffffffff7c010000000000000000000000000000000000000000000000000000000060003504166301ffc9a7811461011657806306fdde0314610161578063081812fc146101eb578063095ea7b31461021f578063162094c41461024557806323b872dd146102a357806342842e0e146102cd5780636352211e146102f75780636a6278421461030f57806370a082311461034257806383012e22146103635780638da5cb5b1461037857806395d89b411461038d578063a22cb465146103a2578063b139acd9146103c8578063b88d4fde146103f3578063bccee44014610462578063c87b56dd14610477578063e985e9c51461048f578063f2fde38b146104b6575b600080fd5b34801561012257600080fd5b5061014d7bffffffffffffffffffffffffffffffffffffffffffffffffffffffff19600435166104d7565b604080519115158252519081900360200190f35b34801561016d57600080fd5b5061017661050f565b6040805160208082528351818301528351919283929083019185019080838360005b838110156101b0578181015183820152602001610198565b50505050905090810190601f1680156101dd5780820380516001836020036101000a031916815260200191505b509250505060405180910390f35b3480156101f757600080fd5b506102036004356105a6565b60408051600160a060020a039092168252519081900360200190f35b34801561022b57600080fd5b50610243600160a060020a03600435166024356105d8565b005b34801561025157600080fd5b5060408051602060046024803582810135601f810185900485028601850190965285855261024395833595369560449491939091019190819084018382808284375094975061068e9650505050505050565b3480156102af57600080fd5b50610243600160a060020a03600435811690602435166044356106af565b3480156102d957600080fd5b50610243600160a060020a036004358116906024351660443561073d565b34801561030357600080fd5b5061020360043561075e565b34801561031b57600080fd5b50610330600160a060020a0360043516610788565b60408051918252519081900360200190f35b34801561034e57600080fd5b50610330600160a060020a03600435166107bd565b34801561036f57600080fd5b506103306107f0565b34801561038457600080fd5b506102036107f6565b34801561039957600080fd5b50610176610805565b3480156103ae57600080fd5b50610243600160a060020a03600435166024351515610866565b3480156103d457600080fd5b506103dd6108ea565b6040805160ff9092168252519081900360200190f35b3480156103ff57600080fd5b50604080516020601f60643560048181013592830184900484028501840190955281845261024394600160a060020a0381358116956024803590921695604435953695608494019181908401838280828437509497506108f89650505050505050565b34801561046e57600080fd5b506103dd610920565b34801561048357600080fd5b50610176600435610929565b34801561049b57600080fd5b5061014d600160a060020a03600435811690602435166109de565b3480156104c257600080fd5b50610243600160a060020a0360043516610a0c565b7bffffffffffffffffffffffffffffffffffffffffffffffffffffffff19811660009081526020819052604090205460ff165b919050565b60058054604080516020601f600260001961010060018816150201909516949094049384018190048102820181019092528281526060939092909183018282801561059b5780601f106105705761010080835404028352916020019161059b565b820191906000526020600020905b81548152906001019060200180831161057e57829003601f168201915b505050505090505b90565b60006105b182610ac2565b15156105bc57600080fd5b50600090815260026020526040902054600160a060020a031690565b60006105e38261075e565b9050600160a060020a0383811690821614156105fe57600080fd5b33600160a060020a038216148061061a575061061a81336109de565b151561062557600080fd5b600082815260026020526040808220805473ffffffffffffffffffffffffffffffffffffffff1916600160a060020a0387811691821790925591518593918516917f8c5be1e5ebec7d5bd14f71427d1e84f3dd0314c0f7b2291e5b200ac8c7c3b92591a4505050565b600854600160a060020a03163314156106ab576106ab8282610adf565b5050565b6106b93382610b12565b15156106c457600080fd5b600160a060020a03821615156106d957600080fd5b6106e38382610b71565b6106ed8382610be0565b6106f78282610c76565b8082600160a060020a031684600160a060020a03167fddf252ad1be2c89b69c2b068fc378daa952ba7f163c4a11628f55a4df523b3ef60405160405180910390a4505050565b61075983838360206040519081016040528060008152506108f8565b505050565b600081815260016020526040812054600160a060020a031680151561078257600080fd5b92915050565b600854600090600160a060020a031633141561050a576107ad82600954600101610d06565b5050600980546001019081905590565b6000600160a060020a03821615156107d457600080fd5b50600160a060020a031660009081526003602052604090205490565b60095481565b600854600160a060020a031681565b60068054604080516020601f600260001961010060018816150201909516949094049384018190048102820181019092528281526060939092909183018282801561059b5780601f106105705761010080835404028352916020019161059b565b600160a060020a03821633141561087c57600080fd5b336000818152600460209081526040808320600160a060020a03871680855290835292819020805460ff1916861515908117909155815190815290519293927f17307eab39ab6107e8899845ad3d59bd9653f200f220920489ca2b5937696c31929181900390910190a35050565b600a54610100900460ff1681565b6109038484846106af565b61090f84848484610d61565b151561091a57600080fd5b50505050565b600a5460ff1681565b606061093482610ac2565b151561093f57600080fd5b60008281526007602090815260409182902080548351601f6002600019610100600186161502019093169290920491820184900484028101840190945280845290918301828280156109d25780601f106109a7576101008083540402835291602001916109d2565b820191906000526020600020905b8154815290600101906020018083116109b557829003601f168201915b50505050509050919050565b600160a060020a03918216600090815260046020908152604080832093909416825291909152205460ff1690565b600854600160a060020a0316331415610abf57600160a060020a0381161515610a9657604080517f08c379a000000000000000000000000000000000000000000000000000000000815260206004820152600f60248201527f496e76616c696420616464726573730000000000000000000000000000000000604482015290519081900360640190fd5b6008805473ffffffffffffffffffffffffffffffffffffffff1916600160a060020a0383161790555b50565b600090815260016020526040902054600160a060020a0316151590565b610ae882610ac2565b1515610af357600080fd5b6000828152600760209081526040909120825161075992840190610f1b565b600080610b1e8361075e565b905080600160a060020a031684600160a060020a03161480610b59575083600160a060020a0316610b4e846105a6565b600160a060020a0316145b80610b695750610b6981856109de565b949350505050565b81600160a060020a0316610b848261075e565b600160a060020a031614610b9757600080fd5b600081815260026020526040902054600160a060020a0316156106ab576000908152600260205260409020805473ffffffffffffffffffffffffffffffffffffffff1916905550565b81600160a060020a0316610bf38261075e565b600160a060020a031614610c0657600080fd5b600160a060020a038216600090815260036020526040902054610c3090600163ffffffff610ee316565b600160a060020a03909216600090815260036020908152604080832094909455918152600190915220805473ffffffffffffffffffffffffffffffffffffffff19169055565b600081815260016020526040902054600160a060020a031615610c9857600080fd5b6000818152600160208181526040808420805473ffffffffffffffffffffffffffffffffffffffff1916600160a060020a0388169081179091558452600390915290912054610ce691610efa565b600160a060020a0390921660009081526003602052604090209190915550565b600160a060020a0382161515610d1b57600080fd5b610d258282610c76565b6040518190600160a060020a038416906000907fddf252ad1be2c89b69c2b068fc378daa952ba7f163c4a11628f55a4df523b3ef908290a45050565b600080610d7685600160a060020a0316610f13565b1515610d855760019150610eda565b6040517f150b7a020000000000000000000000000000000000000000000000000000000081523360048201818152600160a060020a03898116602485015260448401889052608060648501908152875160848601528751918a169463150b7a0294938c938b938b93909160a490910190602085019080838360005b83811015610e18578181015183820152602001610e00565b50505050905090810190601f168015610e455780820380516001836020036101000a031916815260200191505b5095505050505050602060405180830381600087803b158015610e6757600080fd5b505af1158015610e7b573d6000803e3d6000fd5b505050506040513d6020811015610e9157600080fd5b50517bffffffffffffffffffffffffffffffffffffffffffffffffffffffff1981167f150b7a020000000000000000000000000000000000000000000000000000000014925090505b50949350505050565b60008083831115610ef357600080fd5b5050900390565b600082820183811015610f0c57600080fd5b9392505050565b6000903b1190565b828054600181600116156101000203166002900490600052602060002090601f016020900481019282601f10610f5c57805160ff1916838001178555610f89565b82800160010185558215610f89579182015b82811115610f89578251825591602001919060010190610f6e565b50610f95929150610f99565b5090565b6105a391905b80821115610f955760008155600101610f9f5600a165627a7a72305820f050429ca09717a4a92a61cc9c98d83b2f4dd0c811498c5b82ea2dd656dc03b1002960806040523480156200001157600080fd5b5060405162001242380380620012428339810160409081528151602083015191830151606084015191840193929092019190838381816200007b7f01ffc9a70000000000000000000000000000000000000000000000000000000064010000000062000149810204565b620000af7f80ac58cd0000000000000000000000000000000000000000000000000000000064010000000062000149810204565b8151620000c4906005906020850190620001b6565b508051620000da906006906020840190620001b6565b506200010f7f5b5e139f0000000000000000000000000000000000000000000000000000000064010000000062000149810204565b505060088054600160a060020a031916331790555050600b91909155600a805460ff90921660ff19909216919091179055506200025b9050565b7fffffffff0000000000000000000000000000000000000000000000000000000080821614156200017957600080fd5b7fffffffff00000000000000000000000000000000000000000000000000000000166000908152602081905260409020805460ff19166001179055565b828054600181600116156101000203166002900490600052602060002090601f016020900481019282601f10620001f957805160ff191683800117855562000229565b8280016001018555821562000229579182015b82811115620002295782518255916020019190600101906200020c565b50620002379291506200023b565b5090565b6200025891905b8082111562000237576000815560010162000242565b90565b610fd7806200026b6000396000f3006080604052600436106101115763ffffffff7c010000000000000000000000000000000000000000000000000000000060003504166301ffc9a7811461011657806306fdde0314610161578063081812fc146101eb578063095ea7b31461021f578063162094c41461024557806323b872dd146102a357806342842e0e146102cd5780636352211e146102f75780636a6278421461030f57806370a082311461034257806383012e22146103635780638da5cb5b1461037857806395d89b411461038d578063a22cb465146103a2578063b88d4fde146103c8578063c87b56dd14610437578063d2e8b6201461044f578063dbf9776c14610464578063e985e9c51461048f578063f2fde38b146104b6575b600080fd5b34801561012257600080fd5b5061014d7bffffffffffffffffffffffffffffffffffffffffffffffffffffffff19600435166104d7565b604080519115158252519081900360200190f35b34801561016d57600080fd5b5061017661050f565b6040805160208082528351818301528351919283929083019185019080838360005b838110156101b0578181015183820152602001610198565b50505050905090810190601f1680156101dd5780820380516001836020036101000a031916815260200191505b509250505060405180910390f35b3480156101f757600080fd5b506102036004356105a6565b60408051600160a060020a039092168252519081900360200190f35b34801561022b57600080fd5b50610243600160a060020a03600435166024356105d8565b005b34801561025157600080fd5b5060408051602060046024803582810135601f810185900485028601850190965285855261024395833595369560449491939091019190819084018382808284375094975061068e9650505050505050565b3480156102af57600080fd5b50610243600160a060020a03600435811690602435166044356106af565b3480156102d957600080fd5b50610243600160a060020a036004358116906024351660443561073d565b34801561030357600080fd5b5061020360043561075e565b34801561031b57600080fd5b50610330600160a060020a0360043516610788565b60408051918252519081900360200190f35b34801561034e57600080fd5b50610330600160a060020a03600435166107bd565b34801561036f57600080fd5b506103306107f0565b34801561038457600080fd5b506102036107f6565b34801561039957600080fd5b50610176610805565b3480156103ae57600080fd5b50610243600160a060020a03600435166024351515610866565b3480156103d457600080fd5b50604080516020601f60643560048181013592830184900484028501840190955281845261024394600160a060020a0381358116956024803590921695604435953695608494019181908401838280828437509497506108ea9650505050505050565b34801561044357600080fd5b50610176600435610912565b34801561045b57600080fd5b506103306109c7565b34801561047057600080fd5b506104796109cd565b6040805160ff9092168252519081900360200190f35b34801561049b57600080fd5b5061014d600160a060020a03600435811690602435166109d6565b3480156104c257600080fd5b50610243600160a060020a0360043516610a04565b7bffffffffffffffffffffffffffffffffffffffffffffffffffffffff19811660009081526020819052604090205460ff165b919050565b60058054604080516020601f600260001961010060018816150201909516949094049384018190048102820181019092528281526060939092909183018282801561059b5780601f106105705761010080835404028352916020019161059b565b820191906000526020600020905b81548152906001019060200180831161057e57829003601f168201915b505050505090505b90565b60006105b182610aba565b15156105bc57600080fd5b50600090815260026020526040902054600160a060020a031690565b60006105e38261075e565b9050600160a060020a0383811690821614156105fe57600080fd5b33600160a060020a038216148061061a575061061a81336109d6565b151561062557600080fd5b600082815260026020526040808220805473ffffffffffffffffffffffffffffffffffffffff1916600160a060020a0387811691821790925591518593918516917f8c5be1e5ebec7d5bd14f71427d1e84f3dd0314c0f7b2291e5b200ac8c7c3b92591a4505050565b600854600160a060020a03163314156106ab576106ab8282610ad7565b5050565b6106b93382610b0a565b15156106c457600080fd5b600160a060020a03821615156106d957600080fd5b6106e38382610b69565b6106ed8382610bd8565b6106f78282610c6e565b8082600160a060020a031684600160a060020a03167fddf252ad1be2c89b69c2b068fc378daa952ba7f163c4a11628f55a4df523b3ef60405160405180910390a4505050565b61075983838360206040519081016040528060008152506108ea565b505050565b600081815260016020526040812054600160a060020a031680151561078257600080fd5b92915050565b600854600090600160a060020a031633141561050a576107ad82600954600101610cfe565b5050600980546001019081905590565b6000600160a060020a03821615156107d457600080fd5b50600160a060020a031660009081526003602052604090205490565b60095481565b600854600160a060020a031681565b60068054604080516020601f600260001961010060018816150201909516949094049384018190048102820181019092528281526060939092909183018282801561059b5780601f106105705761010080835404028352916020019161059b565b600160a060020a03821633141561087c57600080fd5b336000818152600460209081526040808320600160a060020a03871680855290835292819020805460ff1916861515908117909155815190815290519293927f17307eab39ab6107e8899845ad3d59bd9653f200f220920489ca2b5937696c31929181900390910190a35050565b6108f58484846106af565b61090184848484610d59565b151561090c57600080fd5b50505050565b606061091d82610aba565b151561092857600080fd5b60008281526007602090815260409182902080548351601f6002600019610100600186161502019093169290920491820184900484028101840190945280845290918301828280156109bb5780601f10610990576101008083540402835291602001916109bb565b820191906000526020600020905b81548152906001019060200180831161099e57829003601f168201915b50505050509050919050565b600b5481565b600a5460ff1681565b600160a060020a03918216600090815260046020908152604080832093909416825291909152205460ff1690565b600854600160a060020a0316331415610ab757600160a060020a0381161515610a8e57604080517f08c379a000000000000000000000000000000000000000000000000000000000815260206004820152600f60248201527f496e76616c696420616464726573730000000000000000000000000000000000604482015290519081900360640190fd5b6008805473ffffffffffffffffffffffffffffffffffffffff1916600160a060020a0383161790555b50565b600090815260016020526040902054600160a060020a0316151590565b610ae082610aba565b1515610aeb57600080fd5b6000828152600760209081526040909120825161075992840190610f13565b600080610b168361075e565b905080600160a060020a031684600160a060020a03161480610b51575083600160a060020a0316610b46846105a6565b600160a060020a0316145b80610b615750610b6181856109d6565b949350505050565b81600160a060020a0316610b7c8261075e565b600160a060020a031614610b8f57600080fd5b600081815260026020526040902054600160a060020a0316156106ab576000908152600260205260409020805473ffffffffffffffffffffffffffffffffffffffff1916905550565b81600160a060020a0316610beb8261075e565b600160a060020a031614610bfe57600080fd5b600160a060020a038216600090815260036020526040902054610c2890600163ffffffff610edb16565b600160a060020a03909216600090815260036020908152604080832094909455918152600190915220805473ffffffffffffffffffffffffffffffffffffffff19169055565b600081815260016020526040902054600160a060020a031615610c9057600080fd5b6000818152600160208181526040808420805473ffffffffffffffffffffffffffffffffffffffff1916600160a060020a0388169081179091558452600390915290912054610cde91610ef2565b600160a060020a0390921660009081526003602052604090209190915550565b600160a060020a0382161515610d1357600080fd5b610d1d8282610c6e565b6040518190600160a060020a038416906000907fddf252ad1be2c89b69c2b068fc378daa952ba7f163c4a11628f55a4df523b3ef908290a45050565b600080610d6e85600160a060020a0316610f0b565b1515610d7d5760019150610ed2565b6040517f150b7a020000000000000000000000000000000000000000000000000000000081523360048201818152600160a060020a03898116602485015260448401889052608060648501908152875160848601528751918a169463150b7a0294938c938b938b93909160a490910190602085019080838360005b83811015610e10578181015183820152602001610df8565b50505050905090810190601f168015610e3d5780820380516001836020036101000a031916815260200191505b5095505050505050602060405180830381600087803b158015610e5f57600080fd5b505af1158015610e73573d6000803e3d6000fd5b505050506040513d6020811015610e8957600080fd5b50517bffffffffffffffffffffffffffffffffffffffffffffffffffffffff1981167f150b7a020000000000000000000000000000000000000000000000000000000014925090505b50949350505050565b60008083831115610eeb57600080fd5b5050900390565b600082820183811015610f0457600080fd5b9392505050565b6000903b1190565b828054600181600116156101000203166002900490600052602060002090601f016020900481019282601f10610f5457805160ff1916838001178555610f81565b82800160010185558215610f81579182015b82811115610f81578251825591602001919060010190610f66565b50610f8d929150610f91565b5090565b6105a391905b80821115610f8d5760008155600101610f975600a165627a7a723058204d16fd84783797fdf04e2dc00693dbca01c104e612b705c2e1221ef62f7d9e47002908c379a000000000000000000000000000000000000000000000000000000000a165627a7a72305820c9c8666d41379ce2492115c0994579b2bc46f072cb353841a1b1b40277b6072b0029608060405234801561001057600080fd5b506040516040806107db83398101604052805160209091015161003c8282640100000000610043810204565b5050610114565b600160a060020a038216151561005857600080fd5b60025461007290826401000000006106736100fb82021704565b600255600160a060020a0382166000908152602081905260409020546100a590826401000000006106736100fb82021704565b600160a060020a0383166000818152602081815260408083209490945583518581529351929391927fddf252ad1be2c89b69c2b068fc378daa952ba7f163c4a11628f55a4df523b3ef9281900390910190a35050565b60008282018381101561010d57600080fd5b9392505050565b6106b8806101236000396000f3006080604052600436106100a35763ffffffff7c010000000000000000000000000000000000000000000000000000000060003504166306fdde0381146100a8578063095ea7b31461013257806318160ddd1461016a57806323b872dd1461019157806339509351146101bb57806370a08231146101df57806395d89b4114610200578063a457c2d714610215578063a9059cbb14610239578063dd62ed3e1461025d575b600080fd5b3480156100b457600080fd5b506100bd610284565b6040805160208082528351818301528351919283929083019185019080838360005b838110156100f75781810151838201526020016100df565b50505050905090810190601f1680156101245780820380516001836020036101000a031916815260200191505b509250505060405180910390f35b34801561013e57600080fd5b50610156600160a060020a03600435166024356102bb565b604080519115158252519081900360200190f35b34801561017657600080fd5b5061017f610339565b60408051918252519081900360200190f35b34801561019d57600080fd5b50610156600160a060020a036004358116906024351660443561033f565b3480156101c757600080fd5b50610156600160a060020a03600435166024356103dc565b3480156101eb57600080fd5b5061017f600160a060020a036004351661048c565b34801561020c57600080fd5b506100bd6104a7565b34801561022157600080fd5b50610156600160a060020a03600435166024356104de565b34801561024557600080fd5b50610156600160a060020a0360043516602435610529565b34801561026957600080fd5b5061017f600160a060020a036004358116906024351661053f565b60408051808201909152600681527f4441626f6e6f0000000000000000000000000000000000000000000000000000602082015281565b6000600160a060020a03831615156102d257600080fd5b336000818152600160209081526040808320600160a060020a03881680855290835292819020869055805186815290519293927f8c5be1e5ebec7d5bd14f71427d1e84f3dd0314c0f7b2291e5b200ac8c7c3b925929181900390910190a350600192915050565b60025490565b600160a060020a038316600090815260016020908152604080832033845290915281205482111561036f57600080fd5b600160a060020a03841660009081526001602090815260408083203384529091529020546103a3908363ffffffff61056a16565b600160a060020a03851660009081526001602090815260408083203384529091529020556103d2848484610581565b5060019392505050565b6000600160a060020a03831615156103f357600080fd5b336000908152600160209081526040808320600160a060020a0387168452909152902054610427908363ffffffff61067316565b336000818152600160209081526040808320600160a060020a0389168085529083529281902085905580519485525191937f8c5be1e5ebec7d5bd14f71427d1e84f3dd0314c0f7b2291e5b200ac8c7c3b925929081900390910190a350600192915050565b600160a060020a031660009081526020819052604090205490565b60408051808201909152600381527f4441420000000000000000000000000000000000000000000000000000000000602082015281565b6000600160a060020a03831615156104f557600080fd5b336000908152600160209081526040808320600160a060020a0387168452909152902054610427908363ffffffff61056a16565b6000610536338484610581565b50600192915050565b600160a060020a03918216600090815260016020908152604080832093909416825291909152205490565b6000808383111561057a57600080fd5b5050900390565b600160a060020a0383166000908152602081905260409020548111156105a657600080fd5b600160a060020a03821615156105bb57600080fd5b600160a060020a0383166000908152602081905260409020546105e4908263ffffffff61056a16565b600160a060020a038085166000908152602081905260408082209390935590841681522054610619908263ffffffff61067316565b600160a060020a038084166000818152602081815260409182902094909455805185815290519193928716927fddf252ad1be2c89b69c2b068fc378daa952ba7f163c4a11628f55a4df523b3ef92918290030190a3505050565b60008282018381101561068557600080fd5b93925050505600a165627a7a723058201eaa184995afa79e37f531b5e7e13bd6c171669a91ece523a10a6e1e80d2f2580029",
  "source": "\npragma solidity ^0.4.24;\n\nimport \"../Localidad.sol\";\nimport \"../DAbono.sol\";\nimport \"../Abono.sol\";\nimport \"../Espectaculo.sol\";\nimport \"../DatosTemporada.sol\";\n\ncontract TemporadaTest is DatosTemporada{\n   \n    event LoalidadCreada(address localidad, uint8 id);\n    event EspectaculoCreado(address espectaculo, uint8 id);\n    event AbonoComprado(address abono, uint8 id);\n    event AbonoAlquilado(address abono, uint8 id);\n    event FechaActualizada(address abono, uint8 id);\n    \n    mapping (uint8 => Localidad) private localidades; // registrar las localidades creadas segn su id\n    mapping (uint8 => Espectaculo) private espectaculos; // registrar los espectculos creados segn su id\n    mapping (uint8 => Abono) private localidadAbono; // registrar en cada id de la localidad el abono asociado\n    mapping (address => uint8) private abonadoLocalidad; // para una direccin me devuelve la localidad que posee en su abono\n    \n    constructor(string nameTemporada, uint256 dineroInicial, uint8 _precioBase, uint8 _tiposLocalidad, uint8 _factorIncrementoTipo, uint8 _porcentajeAlquiler) public{\n        nombre = nameTemporada;\n        precioBase = _precioBase;\n        tiposLocalidad = _tiposLocalidad;\n        factorIncrementoTipo = _factorIncrementoTipo;\n        porcentajeAlquiler = _porcentajeAlquiler;\n        dineroAbono = new DAbono(msg.sender, dineroInicial);\n    }\n     \n     function creaLocalidad(uint8 tipoLocalidad, string nameLocalidad, string symbolLocalidad, string uriLocalidad) public onlyOwner {\n        require(faseTemporada == Etapa.Creacion, \"Slo se permiten aadir ms localidades en fase de creacin\");\n        require(tipoLocalidad >= 0 && tipoLocalidad <= tiposLocalidad, \"Slo se permiten localidades del rango de tipos definidos \");\n        Localidad localidad = new Localidad(nameLocalidad, symbolLocalidad, tipoLocalidad, actualIdLocalidad + 1);\n        localidades[actualIdLocalidad + 1] = localidad;\n        localidad.mint(owner);\n        localidad.setTokenURI(1, uriLocalidad);\n        localidad.transferOwnership(owner);\n        actualIdLocalidad = actualIdLocalidad + 1;\n        emit LoalidadCreada(address(localidad), actualIdLocalidad);\n    }\n\n    function creaEspectaculo(uint fechaEspectaculo, string nameEspectaculo, string symbolEspectaculo, string uriEspectaculo) public onlyOwner {\n        require(faseTemporada == Etapa.Creacion, \"Slo se permiten aadir ms espectculos en fase de creacin\");\n        Espectaculo espectaculo = new Espectaculo(nameEspectaculo, symbolEspectaculo, fechaEspectaculo, actualIdEspectaculo + 1);\n        espectaculos[actualIdEspectaculo + 1] = espectaculo;\n        espectaculo.mint(owner);\n        espectaculo.setTokenURI(1, uriEspectaculo);\n         espectaculo.transferOwnership(owner);\n        actualIdEspectaculo = actualIdEspectaculo + 1;\n        emit EspectaculoCreado(address(espectaculo), actualIdEspectaculo);\n    }\n    \n    function actualizaFechas(uint8 localidadId, uint _fechaDesde, uint _fechaHasta) public{\n        localidadAbono[localidadId].actualizaFechas(_fechaDesde, _fechaHasta);\n        emit FechaActualizada(address(localidadAbono[localidadId]), localidadAbono[localidadId].idAbono());\n    }\n}",
  "sourcePath": "/Users/dvm/Documents/Development/WorkspaceEB/TFE/TruffleProject/contracts/test/TemporadaTest.sol",
  "compiler": {
    "name": "solc",
    "version": "0.4.24+commit.e67f0147.Emscripten.clang"
  },
  "schemaVersion": "3.3.4",
  "updatedAt": "2021-03-18T18:49:21.817Z",
  "devdoc": {
    "methods": {}
  },
  "userdoc": {
    "methods": {}
  }
}